{
  "_format": "hh-sol-artifact-1",
  "contractName": "LockerV4",
  "sourceName": "contracts/locker/LockerV4.sol",
  "abi": [
    {
      "anonymous": false,
      "inputs": [
        {
          "indexed": false,
          "internalType": "address",
          "name": "user",
          "type": "address"
        },
        {
          "indexed": true,
          "internalType": "string",
          "name": "tokenType",
          "type": "string"
        },
        {
          "indexed": true,
          "internalType": "uint256",
          "name": "tokenAddress",
          "type": "uint256"
        },
        {
          "indexed": false,
          "internalType": "uint256",
          "name": "tokenAmount",
          "type": "uint256"
        }
      ],
      "name": "TokenLocked",
      "type": "event"
    },
    {
      "inputs": [
        {
          "internalType": "string",
          "name": "_tokenType",
          "type": "string"
        },
        {
          "internalType": "address",
          "name": "_tokenAddress",
          "type": "address"
        },
        {
          "internalType": "uint256",
          "name": "_tokenId",
          "type": "uint256"
        },
        {
          "internalType": "uint256",
          "name": "_tokenAmount",
          "type": "uint256"
        },
        {
          "internalType": "uint256",
          "name": "_unlockTime",
          "type": "uint256"
        }
      ],
      "name": "createLocker",
      "outputs": [],
      "stateMutability": "payable",
      "type": "function"
    },
    {
      "inputs": [
        {
          "internalType": "uint256",
          "name": "_lockerId",
          "type": "uint256"
        }
      ],
      "name": "destroyLocker",
      "outputs": [],
      "stateMutability": "nonpayable",
      "type": "function"
    },
    {
      "inputs": [
        {
          "internalType": "uint256",
          "name": "_lockerId",
          "type": "uint256"
        }
      ],
      "name": "getLockerInfo",
      "outputs": [
        {
          "components": [
            {
              "internalType": "address payable",
              "name": "tokenOwner",
              "type": "address"
            },
            {
              "internalType": "string",
              "name": "tokenType",
              "type": "string"
            },
            {
              "internalType": "address",
              "name": "tokenAddress",
              "type": "address"
            },
            {
              "internalType": "uint256",
              "name": "tokenId",
              "type": "uint256"
            },
            {
              "internalType": "uint256",
              "name": "tokenAmount",
              "type": "uint256"
            },
            {
              "internalType": "uint256",
              "name": "lockTime",
              "type": "uint256"
            },
            {
              "internalType": "uint256",
              "name": "unlockTime",
              "type": "uint256"
            },
            {
              "internalType": "bool",
              "name": "isWithdrawn",
              "type": "bool"
            }
          ],
          "internalType": "struct LockerV4.LockerInfo",
          "name": "",
          "type": "tuple"
        }
      ],
      "stateMutability": "view",
      "type": "function"
    },
    {
      "inputs": [
        {
          "internalType": "address",
          "name": "_tokenOwner",
          "type": "address"
        }
      ],
      "name": "getLockersOfUser",
      "outputs": [
        {
          "internalType": "uint256[]",
          "name": "",
          "type": "uint256[]"
        }
      ],
      "stateMutability": "view",
      "type": "function"
    },
    {
      "inputs": [
        {
          "internalType": "address",
          "name": "",
          "type": "address"
        },
        {
          "internalType": "address",
          "name": "",
          "type": "address"
        },
        {
          "internalType": "uint256[]",
          "name": "",
          "type": "uint256[]"
        },
        {
          "internalType": "uint256[]",
          "name": "",
          "type": "uint256[]"
        },
        {
          "internalType": "bytes",
          "name": "",
          "type": "bytes"
        }
      ],
      "name": "onERC1155BatchReceived",
      "outputs": [
        {
          "internalType": "bytes4",
          "name": "",
          "type": "bytes4"
        }
      ],
      "stateMutability": "nonpayable",
      "type": "function"
    },
    {
      "inputs": [
        {
          "internalType": "address",
          "name": "",
          "type": "address"
        },
        {
          "internalType": "address",
          "name": "",
          "type": "address"
        },
        {
          "internalType": "uint256",
          "name": "",
          "type": "uint256"
        },
        {
          "internalType": "uint256",
          "name": "",
          "type": "uint256"
        },
        {
          "internalType": "bytes",
          "name": "",
          "type": "bytes"
        }
      ],
      "name": "onERC1155Received",
      "outputs": [
        {
          "internalType": "bytes4",
          "name": "",
          "type": "bytes4"
        }
      ],
      "stateMutability": "nonpayable",
      "type": "function"
    },
    {
      "inputs": [
        {
          "internalType": "bytes4",
          "name": "interfaceId",
          "type": "bytes4"
        }
      ],
      "name": "supportsInterface",
      "outputs": [
        {
          "internalType": "bool",
          "name": "",
          "type": "bool"
        }
      ],
      "stateMutability": "view",
      "type": "function"
    }
  ],
  "bytecode": "0x608060405234801561001057600080fd5b5061244c806100206000396000f3fe6080604052600436106100705760003560e01c806365ebdf911161004e57806365ebdf911461010b578063bc197c8114610134578063dffbd52e14610171578063f23a6e61146101ae57610070565b806301ffc9a7146100755780633dae1720146100b2578063493819c5146100ce575b600080fd5b34801561008157600080fd5b5061009c600480360381019061009791906117d0565b6101eb565b6040516100a99190611d18565b60405180910390f35b6100cc60048036038101906100c791906117f9565b610265565b005b3480156100da57600080fd5b506100f560048036038101906100f09190611888565b610813565b6040516101029190611e2e565b60405180910390f35b34801561011757600080fd5b50610132600480360381019061012d9190611888565b6109c2565b005b34801561014057600080fd5b5061015b60048036038101906101569190611659565b61121a565b6040516101689190611d33565b60405180910390f35b34801561017d57600080fd5b5061019860048036038101906101939190611630565b61122f565b6040516101a59190611cf6565b60405180910390f35b3480156101ba57600080fd5b506101d560048036038101906101d09190611718565b6112c6565b6040516101e29190611d33565b60405180910390f35b60007f4e2312e0000000000000000000000000000000000000000000000000000000007bffffffffffffffffffffffffffffffffffffffffffffffffffffffff1916827bffffffffffffffffffffffffffffffffffffffffffffffffffffffff1916148061025e575061025d826112db565b5b9050919050565b600082116102a8576040517f08c379a000000000000000000000000000000000000000000000000000000000815260040161029f90611dee565b60405180910390fd5b62278d00426102b79190611f7a565b8111156102f9576040517f08c379a00000000000000000000000000000000000000000000000000000000081526004016102f090611d4e565b60405180910390fd5b600033905061033d866040518060400160405280600381526020017f6574680000000000000000000000000000000000000000000000000000000000815250611345565b1561038957823414610384576040517f08c379a000000000000000000000000000000000000000000000000000000000815260040161037b90611d6e565b60405180910390fd5b610619565b6103c8866040518060400160405280600581526020017f6572633230000000000000000000000000000000000000000000000000000000815250611345565b15610462578473ffffffffffffffffffffffffffffffffffffffff166323b872dd8230866040518463ffffffff1660e01b815260040161040a93929190611c67565b602060405180830381600087803b15801561042457600080fd5b505af1158015610438573d6000803e3d6000fd5b505050506040513d601f19601f8201168201806040525081019061045c91906117a7565b50610618565b6104a1866040518060400160405280600681526020017f6572633732310000000000000000000000000000000000000000000000000000815250611345565b1561051a578473ffffffffffffffffffffffffffffffffffffffff166323b872dd8230876040518463ffffffff1660e01b81526004016104e393929190611c67565b600060405180830381600087803b1580156104fd57600080fd5b505af1158015610511573d6000803e3d6000fd5b50505050610617565b610559866040518060400160405280600781526020017f6572633131353500000000000000000000000000000000000000000000000000815250611345565b156105d4578473ffffffffffffffffffffffffffffffffffffffff1663f242432a823087876040518563ffffffff1660e01b815260040161059d9493929190611c9e565b600060405180830381600087803b1580156105b757600080fd5b505af11580156105cb573d6000803e3d6000fd5b50505050610616565b6000610615576040517f08c379a000000000000000000000000000000000000000000000000000000000815260040161060c90611dae565b60405180910390fd5b5b5b5b5b60008081548092919061062b90612165565b9190505550600160008273ffffffffffffffffffffffffffffffffffffffff1673ffffffffffffffffffffffffffffffffffffffff16815260200190815260200160002060005490806001815401808255809150506001900390600052602060002001600090919091909150556040518061010001604052808273ffffffffffffffffffffffffffffffffffffffff1681526020018781526020018673ffffffffffffffffffffffffffffffffffffffff16815260200185815260200184815260200142815260200183815260200160001515815250600260008054815260200190815260200160002060008201518160000160006101000a81548173ffffffffffffffffffffffffffffffffffffffff021916908373ffffffffffffffffffffffffffffffffffffffff1602179055506020820151816001019080519060200190610778929190611360565b5060408201518160020160006101000a81548173ffffffffffffffffffffffffffffffffffffffff021916908373ffffffffffffffffffffffffffffffffffffffff160217905550606082015181600301556080820151816004015560a0820151816005015560c0820151816006015560e08201518160070160006101000a81548160ff021916908315150217905550905050505050505050565b61081b6113e6565b60026000838152602001908152602001600020604051806101000160405290816000820160009054906101000a900473ffffffffffffffffffffffffffffffffffffffff1673ffffffffffffffffffffffffffffffffffffffff1673ffffffffffffffffffffffffffffffffffffffff1681526020016001820180546108a090612102565b80601f01602080910402602001604051908101604052809291908181526020018280546108cc90612102565b80156109195780601f106108ee57610100808354040283529160200191610919565b820191906000526020600020905b8154815290600101906020018083116108fc57829003601f168201915b505050505081526020016002820160009054906101000a900473ffffffffffffffffffffffffffffffffffffffff1673ffffffffffffffffffffffffffffffffffffffff1673ffffffffffffffffffffffffffffffffffffffff168152602001600382015481526020016004820154815260200160058201548152602001600682015481526020016007820160009054906101000a900460ff1615151515815250509050919050565b3373ffffffffffffffffffffffffffffffffffffffff166002600083815260200190815260200160002060000160009054906101000a900473ffffffffffffffffffffffffffffffffffffffff1673ffffffffffffffffffffffffffffffffffffffff1614610a66576040517f08c379a0000000000000000000000000000000000000000000000000000000008152600401610a5d90611e0e565b60405180910390fd5b4260026000838152602001908152602001600020600601541115610abf576040517f08c379a0000000000000000000000000000000000000000000000000000000008152600401610ab690611dce565b60405180910390fd5b600015156002600083815260200190815260200160002060070160009054906101000a900460ff16151514610b29576040517f08c379a0000000000000000000000000000000000000000000000000000000008152600401610b2090611d8e565b60405180910390fd5b6000600260008381526020019081526020016000206001018054610b4c90612102565b80601f0160208091040260200160405190810160405280929190818152602001828054610b7890612102565b8015610bc55780601f10610b9a57610100808354040283529160200191610bc5565b820191906000526020600020905b815481529060010190602001808311610ba857829003601f168201915b5050505050905060006002600084815260200190815260200160002060000160009054906101000a900473ffffffffffffffffffffffffffffffffffffffff16905060006002600085815260200190815260200160002060020160009054906101000a900473ffffffffffffffffffffffffffffffffffffffff169050600060026000868152602001908152602001600020600301549050600060026000878152602001908152602001600020600401549050610cb7856040518060400160405280600381526020017f6574680000000000000000000000000000000000000000000000000000000000815250611345565b15610d08578373ffffffffffffffffffffffffffffffffffffffff166108fc829081150290604051600060405180830381858888f19350505050158015610d02573d6000803e3d6000fd5b50610f50565b610d47856040518060400160405280600581526020017f6572633230000000000000000000000000000000000000000000000000000000815250611345565b15610ddf578273ffffffffffffffffffffffffffffffffffffffff1663a9059cbb85836040518363ffffffff1660e01b8152600401610d87929190611baf565b602060405180830381600087803b158015610da157600080fd5b505af1158015610db5573d6000803e3d6000fd5b505050506040513d601f19601f82011682018060405250810190610dd991906117a7565b50610f4f565b610e1e856040518060400160405280600681526020017f6572633732310000000000000000000000000000000000000000000000000000815250611345565b15610e97578273ffffffffffffffffffffffffffffffffffffffff166323b872dd3086856040518463ffffffff1660e01b8152600401610e6093929190611bd8565b600060405180830381600087803b158015610e7a57600080fd5b505af1158015610e8e573d6000803e3d6000fd5b50505050610f4e565b610ed6856040518060400160405280600781526020017f6572633131353500000000000000000000000000000000000000000000000000815250611345565b15610f4d578273ffffffffffffffffffffffffffffffffffffffff1663f242432a308685856040518563ffffffff1660e01b8152600401610f1a9493929190611c0f565b600060405180830381600087803b158015610f3457600080fd5b505af1158015610f48573d6000803e3d6000fd5b505050505b5b5b5b6000600160008673ffffffffffffffffffffffffffffffffffffffff1673ffffffffffffffffffffffffffffffffffffffff16815260200190815260200160002080549050905060005b818110156111565787600160008873ffffffffffffffffffffffffffffffffffffffff1673ffffffffffffffffffffffffffffffffffffffff168152602001908152602001600020828154811061101a577f4e487b7100000000000000000000000000000000000000000000000000000000600052603260045260246000fd5b9060005260206000200154141561114357600160008773ffffffffffffffffffffffffffffffffffffffff1673ffffffffffffffffffffffffffffffffffffffff1681526020019081526020016000206001836110779190611fd0565b815481106110ae577f4e487b7100000000000000000000000000000000000000000000000000000000600052603260045260246000fd5b9060005260206000200154600160008873ffffffffffffffffffffffffffffffffffffffff1673ffffffffffffffffffffffffffffffffffffffff1681526020019081526020016000208281548110611130577f4e487b7100000000000000000000000000000000000000000000000000000000600052603260045260246000fd5b9060005260206000200181905550611156565b808061114e90612165565b915050610f9a565b50600160008673ffffffffffffffffffffffffffffffffffffffff1673ffffffffffffffffffffffffffffffffffffffff1681526020019081526020016000208054806111cc577f4e487b7100000000000000000000000000000000000000000000000000000000600052603160045260246000fd5b6001900381819060005260206000200160009055905560016002600089815260200190815260200160002060070160006101000a81548160ff02191690831515021790555050505050505050565b600063bc197c8160e01b905095945050505050565b6060600160008373ffffffffffffffffffffffffffffffffffffffff1673ffffffffffffffffffffffffffffffffffffffff1681526020019081526020016000208054806020026020016040519081016040528092919081815260200182805480156112ba57602002820191906000526020600020905b8154815260200190600101908083116112a6575b50505050509050919050565b600063f23a6e6160e01b905095945050505050565b60007f01ffc9a7000000000000000000000000000000000000000000000000000000007bffffffffffffffffffffffffffffffffffffffffffffffffffffffff1916827bffffffffffffffffffffffffffffffffffffffffffffffffffffffff1916149050919050565b60008180519060200120838051906020012014905092915050565b82805461136c90612102565b90600052602060002090601f01602090048101928261138e57600085556113d5565b82601f106113a757805160ff19168380011785556113d5565b828001600101855582156113d5579182015b828111156113d45782518255916020019190600101906113b9565b5b5090506113e29190611459565b5090565b604051806101000160405280600073ffffffffffffffffffffffffffffffffffffffff16815260200160608152602001600073ffffffffffffffffffffffffffffffffffffffff168152602001600081526020016000815260200160008152602001600081526020016000151581525090565b5b8082111561147257600081600090555060010161145a565b5090565b600061148961148484611e75565b611e50565b905080838252602082019050828560208602820111156114a857600080fd5b60005b858110156114d857816114be888261161b565b8452602084019350602083019250506001810190506114ab565b5050509392505050565b60006114f56114f084611ea1565b611e50565b90508281526020810184848401111561150d57600080fd5b6115188482856120c0565b509392505050565b600061153361152e84611ed2565b611e50565b90508281526020810184848401111561154b57600080fd5b6115568482856120c0565b509392505050565b60008135905061156d816123ba565b92915050565b600082601f83011261158457600080fd5b8135611594848260208601611476565b91505092915050565b6000815190506115ac816123d1565b92915050565b6000813590506115c1816123e8565b92915050565b600082601f8301126115d857600080fd5b81356115e88482602086016114e2565b91505092915050565b600082601f83011261160257600080fd5b8135611612848260208601611520565b91505092915050565b60008135905061162a816123ff565b92915050565b60006020828403121561164257600080fd5b60006116508482850161155e565b91505092915050565b600080600080600060a0868803121561167157600080fd5b600061167f8882890161155e565b95505060206116908882890161155e565b945050604086013567ffffffffffffffff8111156116ad57600080fd5b6116b988828901611573565b935050606086013567ffffffffffffffff8111156116d657600080fd5b6116e288828901611573565b925050608086013567ffffffffffffffff8111156116ff57600080fd5b61170b888289016115c7565b9150509295509295909350565b600080600080600060a0868803121561173057600080fd5b600061173e8882890161155e565b955050602061174f8882890161155e565b94505060406117608882890161161b565b93505060606117718882890161161b565b925050608086013567ffffffffffffffff81111561178e57600080fd5b61179a888289016115c7565b9150509295509295909350565b6000602082840312156117b957600080fd5b60006117c78482850161159d565b91505092915050565b6000602082840312156117e257600080fd5b60006117f0848285016115b2565b91505092915050565b600080600080600060a0868803121561181157600080fd5b600086013567ffffffffffffffff81111561182b57600080fd5b611837888289016115f1565b95505060206118488882890161155e565b94505060406118598882890161161b565b935050606061186a8882890161161b565b925050608061187b8882890161161b565b9150509295509295909350565b60006020828403121561189a57600080fd5b60006118a88482850161161b565b91505092915050565b60006118bd8383611b91565b60208301905092915050565b6118d28161208a565b82525050565b6118e181612016565b82525050565b6118f081612004565b82525050565b6118ff81612004565b82525050565b600061191082611f13565b61191a8185611f36565b935061192583611f03565b8060005b8381101561195657815161193d88826118b1565b975061194883611f29565b925050600181019050611929565b5085935050505092915050565b61196c81612028565b82525050565b61197b81612028565b82525050565b61198a81612034565b82525050565b600061199b82611f1e565b6119a58185611f58565b93506119b58185602086016120cf565b6119be8161223b565b840191505092915050565b60006119d6602383611f69565b91506119e18261224c565b604082019050919050565b60006119f9600283611f69565b9150611a048261229b565b602082019050919050565b6000611a1c600283611f69565b9150611a27826122c4565b602082019050919050565b6000611a3f600283611f69565b9150611a4a826122ed565b602082019050919050565b6000611a62600283611f47565b9150611a6d82612316565b602082019050919050565b6000611a85600283611f69565b9150611a908261233f565b602082019050919050565b6000611aa8600283611f69565b9150611ab382612368565b602082019050919050565b6000611acb600283611f69565b9150611ad682612391565b602082019050919050565b600061010083016000830151611afa60008601826118d8565b5060208301518482036020860152611b128282611990565b9150506040830151611b2760408601826118e7565b506060830151611b3a6060860182611b91565b506080830151611b4d6080860182611b91565b5060a0830151611b6060a0860182611b91565b5060c0830151611b7360c0860182611b91565b5060e0830151611b8660e0860182611963565b508091505092915050565b611b9a81612080565b82525050565b611ba981612080565b82525050565b6000604082019050611bc460008301856118c9565b611bd16020830184611ba0565b9392505050565b6000606082019050611bed60008301866118f6565b611bfa60208301856118c9565b611c076040830184611ba0565b949350505050565b600060a082019050611c2460008301876118f6565b611c3160208301866118c9565b611c3e6040830185611ba0565b611c4b6060830184611ba0565b8181036080830152611c5c81611a55565b905095945050505050565b6000606082019050611c7c60008301866118f6565b611c8960208301856118f6565b611c966040830184611ba0565b949350505050565b600060a082019050611cb360008301876118f6565b611cc060208301866118f6565b611ccd6040830185611ba0565b611cda6060830184611ba0565b8181036080830152611ceb81611a55565b905095945050505050565b60006020820190508181036000830152611d108184611905565b905092915050565b6000602082019050611d2d6000830184611972565b92915050565b6000602082019050611d486000830184611981565b92915050565b60006020820190508181036000830152611d67816119c9565b9050919050565b60006020820190508181036000830152611d87816119ec565b9050919050565b60006020820190508181036000830152611da781611a0f565b9050919050565b60006020820190508181036000830152611dc781611a32565b9050919050565b60006020820190508181036000830152611de781611a78565b9050919050565b60006020820190508181036000830152611e0781611a9b565b9050919050565b60006020820190508181036000830152611e2781611abe565b9050919050565b60006020820190508181036000830152611e488184611ae1565b905092915050565b6000611e5a611e6b565b9050611e668282612134565b919050565b6000604051905090565b600067ffffffffffffffff821115611e9057611e8f61220c565b5b602082029050602081019050919050565b600067ffffffffffffffff821115611ebc57611ebb61220c565b5b611ec58261223b565b9050602081019050919050565b600067ffffffffffffffff821115611eed57611eec61220c565b5b611ef68261223b565b9050602081019050919050565b6000819050602082019050919050565b600081519050919050565b600081519050919050565b6000602082019050919050565b600082825260208201905092915050565b600082825260208201905092915050565b600082825260208201905092915050565b600082825260208201905092915050565b6000611f8582612080565b9150611f9083612080565b9250827fffffffffffffffffffffffffffffffffffffffffffffffffffffffffffffffff03821115611fc557611fc46121ae565b5b828201905092915050565b6000611fdb82612080565b9150611fe683612080565b925082821015611ff957611ff86121ae565b5b828203905092915050565b600061200f82612060565b9050919050565b600061202182612060565b9050919050565b60008115159050919050565b60007fffffffff0000000000000000000000000000000000000000000000000000000082169050919050565b600073ffffffffffffffffffffffffffffffffffffffff82169050919050565b6000819050919050565b60006120958261209c565b9050919050565b60006120a7826120ae565b9050919050565b60006120b982612060565b9050919050565b82818337600083830152505050565b60005b838110156120ed5780820151818401526020810190506120d2565b838111156120fc576000848401525b50505050565b6000600282049050600182168061211a57607f821691505b6020821081141561212e5761212d6121dd565b5b50919050565b61213d8261223b565b810181811067ffffffffffffffff8211171561215c5761215b61220c565b5b80604052505050565b600061217082612080565b91507fffffffffffffffffffffffffffffffffffffffffffffffffffffffffffffffff8214156121a3576121a26121ae565b5b600182019050919050565b7f4e487b7100000000000000000000000000000000000000000000000000000000600052601160045260246000fd5b7f4e487b7100000000000000000000000000000000000000000000000000000000600052602260045260246000fd5b7f4e487b7100000000000000000000000000000000000000000000000000000000600052604160045260246000fd5b6000601f19601f8301169050919050565b7f43757272656e746c792063616e206c6f636b206f6e6c7920666f72203330206460008201527f6179730000000000000000000000000000000000000000000000000000000000602082015250565b7f3036000000000000000000000000000000000000000000000000000000000000600082015250565b7f3034000000000000000000000000000000000000000000000000000000000000600082015250565b7f3031000000000000000000000000000000000000000000000000000000000000600082015250565b7f3078000000000000000000000000000000000000000000000000000000000000600082015250565b7f3033000000000000000000000000000000000000000000000000000000000000600082015250565b7f3035000000000000000000000000000000000000000000000000000000000000600082015250565b7f3032000000000000000000000000000000000000000000000000000000000000600082015250565b6123c381612004565b81146123ce57600080fd5b50565b6123da81612028565b81146123e557600080fd5b50565b6123f181612034565b81146123fc57600080fd5b50565b61240881612080565b811461241357600080fd5b5056fea2646970667358221220edb9e8d6811b322635e326faefa7961a9169409aafffa303dedb097c63c68d0864736f6c63430008020033",
  "linkReferences": {},
  "deployedLinkReferences": {}
}