{
  "_format": "hh-sol-artifact-1",
  "contractName": "AshtVinayak",
  "sourceName": "contracts/tokens/auto_increment/AshtVinayak_1155.sol",
  "abi": [
    {
      "inputs": [],
      "stateMutability": "nonpayable",
      "type": "constructor"
    },
    {
      "anonymous": false,
      "inputs": [
        {
          "indexed": true,
          "internalType": "address",
          "name": "account",
          "type": "address"
        },
        {
          "indexed": true,
          "internalType": "address",
          "name": "operator",
          "type": "address"
        },
        {
          "indexed": false,
          "internalType": "bool",
          "name": "approved",
          "type": "bool"
        }
      ],
      "name": "ApprovalForAll",
      "type": "event"
    },
    {
      "anonymous": false,
      "inputs": [
        {
          "indexed": true,
          "internalType": "address",
          "name": "previousOwner",
          "type": "address"
        },
        {
          "indexed": true,
          "internalType": "address",
          "name": "newOwner",
          "type": "address"
        }
      ],
      "name": "OwnershipTransferred",
      "type": "event"
    },
    {
      "anonymous": false,
      "inputs": [
        {
          "indexed": true,
          "internalType": "address",
          "name": "operator",
          "type": "address"
        },
        {
          "indexed": true,
          "internalType": "address",
          "name": "from",
          "type": "address"
        },
        {
          "indexed": true,
          "internalType": "address",
          "name": "to",
          "type": "address"
        },
        {
          "indexed": false,
          "internalType": "uint256[]",
          "name": "ids",
          "type": "uint256[]"
        },
        {
          "indexed": false,
          "internalType": "uint256[]",
          "name": "values",
          "type": "uint256[]"
        }
      ],
      "name": "TransferBatch",
      "type": "event"
    },
    {
      "anonymous": false,
      "inputs": [
        {
          "indexed": true,
          "internalType": "address",
          "name": "operator",
          "type": "address"
        },
        {
          "indexed": true,
          "internalType": "address",
          "name": "from",
          "type": "address"
        },
        {
          "indexed": true,
          "internalType": "address",
          "name": "to",
          "type": "address"
        },
        {
          "indexed": false,
          "internalType": "uint256",
          "name": "id",
          "type": "uint256"
        },
        {
          "indexed": false,
          "internalType": "uint256",
          "name": "value",
          "type": "uint256"
        }
      ],
      "name": "TransferSingle",
      "type": "event"
    },
    {
      "anonymous": false,
      "inputs": [
        {
          "indexed": false,
          "internalType": "string",
          "name": "value",
          "type": "string"
        },
        {
          "indexed": true,
          "internalType": "uint256",
          "name": "id",
          "type": "uint256"
        }
      ],
      "name": "URI",
      "type": "event"
    },
    {
      "inputs": [
        {
          "internalType": "address",
          "name": "account",
          "type": "address"
        },
        {
          "internalType": "uint256",
          "name": "id",
          "type": "uint256"
        }
      ],
      "name": "balanceOf",
      "outputs": [
        {
          "internalType": "uint256",
          "name": "",
          "type": "uint256"
        }
      ],
      "stateMutability": "view",
      "type": "function"
    },
    {
      "inputs": [
        {
          "internalType": "address[]",
          "name": "accounts",
          "type": "address[]"
        },
        {
          "internalType": "uint256[]",
          "name": "ids",
          "type": "uint256[]"
        }
      ],
      "name": "balanceOfBatch",
      "outputs": [
        {
          "internalType": "uint256[]",
          "name": "",
          "type": "uint256[]"
        }
      ],
      "stateMutability": "view",
      "type": "function"
    },
    {
      "inputs": [
        {
          "internalType": "address",
          "name": "account",
          "type": "address"
        },
        {
          "internalType": "address",
          "name": "operator",
          "type": "address"
        }
      ],
      "name": "isApprovedForAll",
      "outputs": [
        {
          "internalType": "bool",
          "name": "",
          "type": "bool"
        }
      ],
      "stateMutability": "view",
      "type": "function"
    },
    {
      "inputs": [
        {
          "internalType": "address",
          "name": "account",
          "type": "address"
        },
        {
          "internalType": "uint256",
          "name": "amount",
          "type": "uint256"
        }
      ],
      "name": "mint",
      "outputs": [],
      "stateMutability": "nonpayable",
      "type": "function"
    },
    {
      "inputs": [],
      "name": "owner",
      "outputs": [
        {
          "internalType": "address",
          "name": "",
          "type": "address"
        }
      ],
      "stateMutability": "view",
      "type": "function"
    },
    {
      "inputs": [],
      "name": "renounceOwnership",
      "outputs": [],
      "stateMutability": "nonpayable",
      "type": "function"
    },
    {
      "inputs": [
        {
          "internalType": "address",
          "name": "from",
          "type": "address"
        },
        {
          "internalType": "address",
          "name": "to",
          "type": "address"
        },
        {
          "internalType": "uint256[]",
          "name": "ids",
          "type": "uint256[]"
        },
        {
          "internalType": "uint256[]",
          "name": "amounts",
          "type": "uint256[]"
        },
        {
          "internalType": "bytes",
          "name": "data",
          "type": "bytes"
        }
      ],
      "name": "safeBatchTransferFrom",
      "outputs": [],
      "stateMutability": "nonpayable",
      "type": "function"
    },
    {
      "inputs": [
        {
          "internalType": "address",
          "name": "from",
          "type": "address"
        },
        {
          "internalType": "address",
          "name": "to",
          "type": "address"
        },
        {
          "internalType": "uint256",
          "name": "id",
          "type": "uint256"
        },
        {
          "internalType": "uint256",
          "name": "amount",
          "type": "uint256"
        },
        {
          "internalType": "bytes",
          "name": "data",
          "type": "bytes"
        }
      ],
      "name": "safeTransferFrom",
      "outputs": [],
      "stateMutability": "nonpayable",
      "type": "function"
    },
    {
      "inputs": [
        {
          "internalType": "address",
          "name": "operator",
          "type": "address"
        },
        {
          "internalType": "bool",
          "name": "approved",
          "type": "bool"
        }
      ],
      "name": "setApprovalForAll",
      "outputs": [],
      "stateMutability": "nonpayable",
      "type": "function"
    },
    {
      "inputs": [
        {
          "internalType": "string",
          "name": "newuri",
          "type": "string"
        }
      ],
      "name": "setURI",
      "outputs": [],
      "stateMutability": "nonpayable",
      "type": "function"
    },
    {
      "inputs": [
        {
          "internalType": "bytes4",
          "name": "interfaceId",
          "type": "bytes4"
        }
      ],
      "name": "supportsInterface",
      "outputs": [
        {
          "internalType": "bool",
          "name": "",
          "type": "bool"
        }
      ],
      "stateMutability": "view",
      "type": "function"
    },
    {
      "inputs": [
        {
          "internalType": "address",
          "name": "newOwner",
          "type": "address"
        }
      ],
      "name": "transferOwnership",
      "outputs": [],
      "stateMutability": "nonpayable",
      "type": "function"
    },
    {
      "inputs": [
        {
          "internalType": "uint256",
          "name": "",
          "type": "uint256"
        }
      ],
      "name": "uri",
      "outputs": [
        {
          "internalType": "string",
          "name": "",
          "type": "string"
        }
      ],
      "stateMutability": "view",
      "type": "function"
    }
  ],
  "bytecode": "0x60806040523480156200001157600080fd5b506040518060200160405280600081525062000033816200005a60201b60201c565b5062000054620000486200007660201b60201c565b6200007e60201b60201c565b62000259565b80600290805190602001906200007292919062000144565b5050565b600033905090565b6000600360009054906101000a900473ffffffffffffffffffffffffffffffffffffffff16905081600360006101000a81548173ffffffffffffffffffffffffffffffffffffffff021916908373ffffffffffffffffffffffffffffffffffffffff1602179055508173ffffffffffffffffffffffffffffffffffffffff168173ffffffffffffffffffffffffffffffffffffffff167f8be0079c531659141344cd1fd0a4f28419497f9722a3daafe3b4186f6b6457e060405160405180910390a35050565b8280546200015290620001f4565b90600052602060002090601f016020900481019282620001765760008555620001c2565b82601f106200019157805160ff1916838001178555620001c2565b82800160010185558215620001c2579182015b82811115620001c1578251825591602001919060010190620001a4565b5b509050620001d19190620001d5565b5090565b5b80821115620001f0576000816000905550600101620001d6565b5090565b600060028204905060018216806200020d57607f821691505b602082108114156200022457620002236200022a565b5b50919050565b7f4e487b7100000000000000000000000000000000000000000000000000000000600052602260045260246000fd5b612ffc80620002696000396000f3fe608060405234801561001057600080fd5b50600436106100ce5760003560e01c80634e1273f41161008c578063a22cb46511610066578063a22cb4651461020f578063e985e9c51461022b578063f242432a1461025b578063f2fde38b14610277576100ce565b80634e1273f4146101b7578063715018a6146101e75780638da5cb5b146101f1576100ce565b8062fdd58e146100d357806301ffc9a71461010357806302fe5305146101335780630e89341c1461014f5780632eb2c2d61461017f57806340c10f191461019b575b600080fd5b6100ed60048036038101906100e89190611f7c565b610293565b6040516100fa91906126de565b60405180910390f35b61011d60048036038101906101189190612024565b61035c565b60405161012a9190612501565b60405180910390f35b61014d60048036038101906101489190612076565b61043e565b005b610169600480360381019061016491906120b7565b6104c6565b604051610176919061251c565b60405180910390f35b61019960048036038101906101949190611df2565b61055a565b005b6101b560048036038101906101b09190611f7c565b6105fb565b005b6101d160048036038101906101cc9190611fb8565b6106d5565b6040516101de91906124a8565b60405180910390f35b6101ef610886565b005b6101f961090e565b60405161020691906123cb565b60405180910390f35b61022960048036038101906102249190611f40565b610938565b005b61024560048036038101906102409190611db6565b61094e565b6040516102529190612501565b60405180910390f35b61027560048036038101906102709190611eb1565b6109e2565b005b610291600480360381019061028c9190611d8d565b610a83565b005b60008073ffffffffffffffffffffffffffffffffffffffff168373ffffffffffffffffffffffffffffffffffffffff161415610304576040517f08c379a00000000000000000000000000000000000000000000000000000000081526004016102fb9061257e565b60405180910390fd5b60008083815260200190815260200160002060008473ffffffffffffffffffffffffffffffffffffffff1673ffffffffffffffffffffffffffffffffffffffff16815260200190815260200160002054905092915050565b60007fd9b67a26000000000000000000000000000000000000000000000000000000007bffffffffffffffffffffffffffffffffffffffffffffffffffffffff1916827bffffffffffffffffffffffffffffffffffffffffffffffffffffffff1916148061042757507f0e89341c000000000000000000000000000000000000000000000000000000007bffffffffffffffffffffffffffffffffffffffffffffffffffffffff1916827bffffffffffffffffffffffffffffffffffffffffffffffffffffffff1916145b80610437575061043682610b7b565b5b9050919050565b610446610be5565b73ffffffffffffffffffffffffffffffffffffffff1661046461090e565b73ffffffffffffffffffffffffffffffffffffffff16146104ba576040517f08c379a00000000000000000000000000000000000000000000000000000000081526004016104b19061263e565b60405180910390fd5b6104c381610bed565b50565b6060600280546104d59061297e565b80601f01602080910402602001604051908101604052809291908181526020018280546105019061297e565b801561054e5780601f106105235761010080835404028352916020019161054e565b820191906000526020600020905b81548152906001019060200180831161053157829003601f168201915b50505050509050919050565b610562610be5565b73ffffffffffffffffffffffffffffffffffffffff168573ffffffffffffffffffffffffffffffffffffffff1614806105a857506105a7856105a2610be5565b61094e565b5b6105e7576040517f08c379a00000000000000000000000000000000000000000000000000000000081526004016105de906125fe565b60405180910390fd5b6105f48585858585610c07565b5050505050565b610603610be5565b73ffffffffffffffffffffffffffffffffffffffff1661062161090e565b73ffffffffffffffffffffffffffffffffffffffff1614610677576040517f08c379a000000000000000000000000000000000000000000000000000000000815260040161066e9061263e565b60405180910390fd5b60006106836004610f67565b905061068f6004610f75565b6106d08382846040518060400160405280600281526020017f3078000000000000000000000000000000000000000000000000000000000000815250610f8b565b505050565b6060815183511461071b576040517f08c379a00000000000000000000000000000000000000000000000000000000081526004016107129061267e565b60405180910390fd5b6000835167ffffffffffffffff81111561075e577f4e487b7100000000000000000000000000000000000000000000000000000000600052604160045260246000fd5b60405190808252806020026020018201604052801561078c5781602001602082028036833780820191505090505b50905060005b845181101561087b576108258582815181106107d7577f4e487b7100000000000000000000000000000000000000000000000000000000600052603260045260246000fd5b6020026020010151858381518110610818577f4e487b7100000000000000000000000000000000000000000000000000000000600052603260045260246000fd5b6020026020010151610293565b82828151811061085e577f4e487b7100000000000000000000000000000000000000000000000000000000600052603260045260246000fd5b60200260200101818152505080610874906129e1565b9050610792565b508091505092915050565b61088e610be5565b73ffffffffffffffffffffffffffffffffffffffff166108ac61090e565b73ffffffffffffffffffffffffffffffffffffffff1614610902576040517f08c379a00000000000000000000000000000000000000000000000000000000081526004016108f99061263e565b60405180910390fd5b61090c6000611121565b565b6000600360009054906101000a900473ffffffffffffffffffffffffffffffffffffffff16905090565b61094a610943610be5565b83836111e7565b5050565b6000600160008473ffffffffffffffffffffffffffffffffffffffff1673ffffffffffffffffffffffffffffffffffffffff16815260200190815260200160002060008373ffffffffffffffffffffffffffffffffffffffff1673ffffffffffffffffffffffffffffffffffffffff16815260200190815260200160002060009054906101000a900460ff16905092915050565b6109ea610be5565b73ffffffffffffffffffffffffffffffffffffffff168573ffffffffffffffffffffffffffffffffffffffff161480610a305750610a2f85610a2a610be5565b61094e565b5b610a6f576040517f08c379a0000000000000000000000000000000000000000000000000000000008152600401610a66906125be565b60405180910390fd5b610a7c8585858585611354565b5050505050565b610a8b610be5565b73ffffffffffffffffffffffffffffffffffffffff16610aa961090e565b73ffffffffffffffffffffffffffffffffffffffff1614610aff576040517f08c379a0000000000000000000000000000000000000000000000000000000008152600401610af69061263e565b60405180910390fd5b600073ffffffffffffffffffffffffffffffffffffffff168173ffffffffffffffffffffffffffffffffffffffff161415610b6f576040517f08c379a0000000000000000000000000000000000000000000000000000000008152600401610b669061259e565b60405180910390fd5b610b7881611121565b50565b60007f01ffc9a7000000000000000000000000000000000000000000000000000000007bffffffffffffffffffffffffffffffffffffffffffffffffffffffff1916827bffffffffffffffffffffffffffffffffffffffffffffffffffffffff1916149050919050565b600033905090565b8060029080519060200190610c03929190611a85565b5050565b8151835114610c4b576040517f08c379a0000000000000000000000000000000000000000000000000000000008152600401610c429061269e565b60405180910390fd5b600073ffffffffffffffffffffffffffffffffffffffff168473ffffffffffffffffffffffffffffffffffffffff161415610cbb576040517f08c379a0000000000000000000000000000000000000000000000000000000008152600401610cb2906125de565b60405180910390fd5b6000610cc5610be5565b9050610cd58187878787876115d6565b60005b8451811015610ed2576000858281518110610d1c577f4e487b7100000000000000000000000000000000000000000000000000000000600052603260045260246000fd5b602002602001015190506000858381518110610d61577f4e487b7100000000000000000000000000000000000000000000000000000000600052603260045260246000fd5b60200260200101519050600080600084815260200190815260200160002060008b73ffffffffffffffffffffffffffffffffffffffff1673ffffffffffffffffffffffffffffffffffffffff16815260200190815260200160002054905081811015610e02576040517f08c379a0000000000000000000000000000000000000000000000000000000008152600401610df99061261e565b60405180910390fd5b81810360008085815260200190815260200160002060008c73ffffffffffffffffffffffffffffffffffffffff1673ffffffffffffffffffffffffffffffffffffffff168152602001908152602001600020819055508160008085815260200190815260200160002060008b73ffffffffffffffffffffffffffffffffffffffff1673ffffffffffffffffffffffffffffffffffffffff1681526020019081526020016000206000828254610eb79190612872565b9250508190555050505080610ecb906129e1565b9050610cd8565b508473ffffffffffffffffffffffffffffffffffffffff168673ffffffffffffffffffffffffffffffffffffffff168273ffffffffffffffffffffffffffffffffffffffff167f4a39dc06d4c0dbc64b70af90fd698a233a518aa5d07e595d983b8c0526c8f7fb8787604051610f499291906124ca565b60405180910390a4610f5f8187878787876115de565b505050505050565b600081600001549050919050565b6001816000016000828254019250508190555050565b600073ffffffffffffffffffffffffffffffffffffffff168473ffffffffffffffffffffffffffffffffffffffff161415610ffb576040517f08c379a0000000000000000000000000000000000000000000000000000000008152600401610ff2906126be565b60405180910390fd5b6000611005610be5565b905061102681600087611017886117c5565b611020886117c5565b876115d6565b8260008086815260200190815260200160002060008773ffffffffffffffffffffffffffffffffffffffff1673ffffffffffffffffffffffffffffffffffffffff16815260200190815260200160002060008282546110859190612872565b925050819055508473ffffffffffffffffffffffffffffffffffffffff16600073ffffffffffffffffffffffffffffffffffffffff168273ffffffffffffffffffffffffffffffffffffffff167fc3d58168c5ae7397731d063d5bbf3d657854427343f4c083240f7aacaa2d0f6287876040516111039291906126f9565b60405180910390a461111a8160008787878761188b565b5050505050565b6000600360009054906101000a900473ffffffffffffffffffffffffffffffffffffffff16905081600360006101000a81548173ffffffffffffffffffffffffffffffffffffffff021916908373ffffffffffffffffffffffffffffffffffffffff1602179055508173ffffffffffffffffffffffffffffffffffffffff168173ffffffffffffffffffffffffffffffffffffffff167f8be0079c531659141344cd1fd0a4f28419497f9722a3daafe3b4186f6b6457e060405160405180910390a35050565b8173ffffffffffffffffffffffffffffffffffffffff168373ffffffffffffffffffffffffffffffffffffffff161415611256576040517f08c379a000000000000000000000000000000000000000000000000000000000815260040161124d9061265e565b60405180910390fd5b80600160008573ffffffffffffffffffffffffffffffffffffffff1673ffffffffffffffffffffffffffffffffffffffff16815260200190815260200160002060008473ffffffffffffffffffffffffffffffffffffffff1673ffffffffffffffffffffffffffffffffffffffff16815260200190815260200160002060006101000a81548160ff0219169083151502179055508173ffffffffffffffffffffffffffffffffffffffff168373ffffffffffffffffffffffffffffffffffffffff167f17307eab39ab6107e8899845ad3d59bd9653f200f220920489ca2b5937696c31836040516113479190612501565b60405180910390a3505050565b600073ffffffffffffffffffffffffffffffffffffffff168473ffffffffffffffffffffffffffffffffffffffff1614156113c4576040517f08c379a00000000000000000000000000000000000000000000000000000000081526004016113bb906125de565b60405180910390fd5b60006113ce610be5565b90506113ee8187876113df886117c5565b6113e8886117c5565b876115d6565b600080600086815260200190815260200160002060008873ffffffffffffffffffffffffffffffffffffffff1673ffffffffffffffffffffffffffffffffffffffff16815260200190815260200160002054905083811015611485576040517f08c379a000000000000000000000000000000000000000000000000000000000815260040161147c9061261e565b60405180910390fd5b83810360008087815260200190815260200160002060008973ffffffffffffffffffffffffffffffffffffffff1673ffffffffffffffffffffffffffffffffffffffff168152602001908152602001600020819055508360008087815260200190815260200160002060008873ffffffffffffffffffffffffffffffffffffffff1673ffffffffffffffffffffffffffffffffffffffff168152602001908152602001600020600082825461153a9190612872565b925050819055508573ffffffffffffffffffffffffffffffffffffffff168773ffffffffffffffffffffffffffffffffffffffff168373ffffffffffffffffffffffffffffffffffffffff167fc3d58168c5ae7397731d063d5bbf3d657854427343f4c083240f7aacaa2d0f6288886040516115b79291906126f9565b60405180910390a46115cd82888888888861188b565b50505050505050565b505050505050565b6115fd8473ffffffffffffffffffffffffffffffffffffffff16611a72565b156117bd578373ffffffffffffffffffffffffffffffffffffffff1663bc197c8187878686866040518663ffffffff1660e01b81526004016116439594939291906123e6565b602060405180830381600087803b15801561165d57600080fd5b505af192505050801561168e57506040513d601f19601f8201168201806040525081019061168b919061204d565b60015b6117345761169a612ab7565b806308c379a014156116f757506116af612ed4565b806116ba57506116f9565b806040517f08c379a00000000000000000000000000000000000000000000000000000000081526004016116ee919061251c565b60405180910390fd5b505b6040517f08c379a000000000000000000000000000000000000000000000000000000000815260040161172b9061253e565b60405180910390fd5b63bc197c8160e01b7bffffffffffffffffffffffffffffffffffffffffffffffffffffffff1916817bffffffffffffffffffffffffffffffffffffffffffffffffffffffff1916146117bb576040517f08c379a00000000000000000000000000000000000000000000000000000000081526004016117b29061255e565b60405180910390fd5b505b505050505050565b60606000600167ffffffffffffffff81111561180a577f4e487b7100000000000000000000000000000000000000000000000000000000600052604160045260246000fd5b6040519080825280602002602001820160405280156118385781602001602082028036833780820191505090505b5090508281600081518110611876577f4e487b7100000000000000000000000000000000000000000000000000000000600052603260045260246000fd5b60200260200101818152505080915050919050565b6118aa8473ffffffffffffffffffffffffffffffffffffffff16611a72565b15611a6a578373ffffffffffffffffffffffffffffffffffffffff1663f23a6e6187878686866040518663ffffffff1660e01b81526004016118f095949392919061244e565b602060405180830381600087803b15801561190a57600080fd5b505af192505050801561193b57506040513d601f19601f82011682018060405250810190611938919061204d565b60015b6119e157611947612ab7565b806308c379a014156119a4575061195c612ed4565b8061196757506119a6565b806040517f08c379a000000000000000000000000000000000000000000000000000000000815260040161199b919061251c565b60405180910390fd5b505b6040517f08c379a00000000000000000000000000000000000000000000000000000000081526004016119d89061253e565b60405180910390fd5b63f23a6e6160e01b7bffffffffffffffffffffffffffffffffffffffffffffffffffffffff1916817bffffffffffffffffffffffffffffffffffffffffffffffffffffffff191614611a68576040517f08c379a0000000000000000000000000000000000000000000000000000000008152600401611a5f9061255e565b60405180910390fd5b505b505050505050565b600080823b905060008111915050919050565b828054611a919061297e565b90600052602060002090601f016020900481019282611ab35760008555611afa565b82601f10611acc57805160ff1916838001178555611afa565b82800160010185558215611afa579182015b82811115611af9578251825591602001919060010190611ade565b5b509050611b079190611b0b565b5090565b5b80821115611b24576000816000905550600101611b0c565b5090565b6000611b3b611b3684612747565b612722565b90508083825260208201905082856020860282011115611b5a57600080fd5b60005b85811015611b8a5781611b708882611c7c565b845260208401935060208301925050600181019050611b5d565b5050509392505050565b6000611ba7611ba284612773565b612722565b90508083825260208201905082856020860282011115611bc657600080fd5b60005b85811015611bf65781611bdc8882611d78565b845260208401935060208301925050600181019050611bc9565b5050509392505050565b6000611c13611c0e8461279f565b612722565b905082815260208101848484011115611c2b57600080fd5b611c3684828561293c565b509392505050565b6000611c51611c4c846127d0565b612722565b905082815260208101848484011115611c6957600080fd5b611c7484828561293c565b509392505050565b600081359050611c8b81612f6a565b92915050565b600082601f830112611ca257600080fd5b8135611cb2848260208601611b28565b91505092915050565b600082601f830112611ccc57600080fd5b8135611cdc848260208601611b94565b91505092915050565b600081359050611cf481612f81565b92915050565b600081359050611d0981612f98565b92915050565b600081519050611d1e81612f98565b92915050565b600082601f830112611d3557600080fd5b8135611d45848260208601611c00565b91505092915050565b600082601f830112611d5f57600080fd5b8135611d6f848260208601611c3e565b91505092915050565b600081359050611d8781612faf565b92915050565b600060208284031215611d9f57600080fd5b6000611dad84828501611c7c565b91505092915050565b60008060408385031215611dc957600080fd5b6000611dd785828601611c7c565b9250506020611de885828601611c7c565b9150509250929050565b600080600080600060a08688031215611e0a57600080fd5b6000611e1888828901611c7c565b9550506020611e2988828901611c7c565b945050604086013567ffffffffffffffff811115611e4657600080fd5b611e5288828901611cbb565b935050606086013567ffffffffffffffff811115611e6f57600080fd5b611e7b88828901611cbb565b925050608086013567ffffffffffffffff811115611e9857600080fd5b611ea488828901611d24565b9150509295509295909350565b600080600080600060a08688031215611ec957600080fd5b6000611ed788828901611c7c565b9550506020611ee888828901611c7c565b9450506040611ef988828901611d78565b9350506060611f0a88828901611d78565b925050608086013567ffffffffffffffff811115611f2757600080fd5b611f3388828901611d24565b9150509295509295909350565b60008060408385031215611f5357600080fd5b6000611f6185828601611c7c565b9250506020611f7285828601611ce5565b9150509250929050565b60008060408385031215611f8f57600080fd5b6000611f9d85828601611c7c565b9250506020611fae85828601611d78565b9150509250929050565b60008060408385031215611fcb57600080fd5b600083013567ffffffffffffffff811115611fe557600080fd5b611ff185828601611c91565b925050602083013567ffffffffffffffff81111561200e57600080fd5b61201a85828601611cbb565b9150509250929050565b60006020828403121561203657600080fd5b600061204484828501611cfa565b91505092915050565b60006020828403121561205f57600080fd5b600061206d84828501611d0f565b91505092915050565b60006020828403121561208857600080fd5b600082013567ffffffffffffffff8111156120a257600080fd5b6120ae84828501611d4e565b91505092915050565b6000602082840312156120c957600080fd5b60006120d784828501611d78565b91505092915050565b60006120ec83836123ad565b60208301905092915050565b612101816128c8565b82525050565b600061211282612811565b61211c818561283f565b935061212783612801565b8060005b8381101561215857815161213f88826120e0565b975061214a83612832565b92505060018101905061212b565b5085935050505092915050565b61216e816128da565b82525050565b600061217f8261281c565b6121898185612850565b935061219981856020860161294b565b6121a281612ad9565b840191505092915050565b60006121b882612827565b6121c28185612861565b93506121d281856020860161294b565b6121db81612ad9565b840191505092915050565b60006121f3603483612861565b91506121fe82612af7565b604082019050919050565b6000612216602883612861565b915061222182612b46565b604082019050919050565b6000612239602b83612861565b915061224482612b95565b604082019050919050565b600061225c602683612861565b915061226782612be4565b604082019050919050565b600061227f602983612861565b915061228a82612c33565b604082019050919050565b60006122a2602583612861565b91506122ad82612c82565b604082019050919050565b60006122c5603283612861565b91506122d082612cd1565b604082019050919050565b60006122e8602a83612861565b91506122f382612d20565b604082019050919050565b600061230b602083612861565b915061231682612d6f565b602082019050919050565b600061232e602983612861565b915061233982612d98565b604082019050919050565b6000612351602983612861565b915061235c82612de7565b604082019050919050565b6000612374602883612861565b915061237f82612e36565b604082019050919050565b6000612397602183612861565b91506123a282612e85565b604082019050919050565b6123b681612932565b82525050565b6123c581612932565b82525050565b60006020820190506123e060008301846120f8565b92915050565b600060a0820190506123fb60008301886120f8565b61240860208301876120f8565b818103604083015261241a8186612107565b9050818103606083015261242e8185612107565b905081810360808301526124428184612174565b90509695505050505050565b600060a08201905061246360008301886120f8565b61247060208301876120f8565b61247d60408301866123bc565b61248a60608301856123bc565b818103608083015261249c8184612174565b90509695505050505050565b600060208201905081810360008301526124c28184612107565b905092915050565b600060408201905081810360008301526124e48185612107565b905081810360208301526124f88184612107565b90509392505050565b60006020820190506125166000830184612165565b92915050565b6000602082019050818103600083015261253681846121ad565b905092915050565b60006020820190508181036000830152612557816121e6565b9050919050565b6000602082019050818103600083015261257781612209565b9050919050565b600060208201905081810360008301526125978161222c565b9050919050565b600060208201905081810360008301526125b78161224f565b9050919050565b600060208201905081810360008301526125d781612272565b9050919050565b600060208201905081810360008301526125f781612295565b9050919050565b60006020820190508181036000830152612617816122b8565b9050919050565b60006020820190508181036000830152612637816122db565b9050919050565b60006020820190508181036000830152612657816122fe565b9050919050565b6000602082019050818103600083015261267781612321565b9050919050565b6000602082019050818103600083015261269781612344565b9050919050565b600060208201905081810360008301526126b781612367565b9050919050565b600060208201905081810360008301526126d78161238a565b9050919050565b60006020820190506126f360008301846123bc565b92915050565b600060408201905061270e60008301856123bc565b61271b60208301846123bc565b9392505050565b600061272c61273d565b905061273882826129b0565b919050565b6000604051905090565b600067ffffffffffffffff82111561276257612761612a88565b5b602082029050602081019050919050565b600067ffffffffffffffff82111561278e5761278d612a88565b5b602082029050602081019050919050565b600067ffffffffffffffff8211156127ba576127b9612a88565b5b6127c382612ad9565b9050602081019050919050565b600067ffffffffffffffff8211156127eb576127ea612a88565b5b6127f482612ad9565b9050602081019050919050565b6000819050602082019050919050565b600081519050919050565b600081519050919050565b600081519050919050565b6000602082019050919050565b600082825260208201905092915050565b600082825260208201905092915050565b600082825260208201905092915050565b600061287d82612932565b915061288883612932565b9250827fffffffffffffffffffffffffffffffffffffffffffffffffffffffffffffffff038211156128bd576128bc612a2a565b5b828201905092915050565b60006128d382612912565b9050919050565b60008115159050919050565b60007fffffffff0000000000000000000000000000000000000000000000000000000082169050919050565b600073ffffffffffffffffffffffffffffffffffffffff82169050919050565b6000819050919050565b82818337600083830152505050565b60005b8381101561296957808201518184015260208101905061294e565b83811115612978576000848401525b50505050565b6000600282049050600182168061299657607f821691505b602082108114156129aa576129a9612a59565b5b50919050565b6129b982612ad9565b810181811067ffffffffffffffff821117156129d8576129d7612a88565b5b80604052505050565b60006129ec82612932565b91507fffffffffffffffffffffffffffffffffffffffffffffffffffffffffffffffff821415612a1f57612a1e612a2a565b5b600182019050919050565b7f4e487b7100000000000000000000000000000000000000000000000000000000600052601160045260246000fd5b7f4e487b7100000000000000000000000000000000000000000000000000000000600052602260045260246000fd5b7f4e487b7100000000000000000000000000000000000000000000000000000000600052604160045260246000fd5b600060033d1115612ad65760046000803e612ad3600051612aea565b90505b90565b6000601f19601f8301169050919050565b60008160e01c9050919050565b7f455243313135353a207472616e7366657220746f206e6f6e204552433131353560008201527f526563656976657220696d706c656d656e746572000000000000000000000000602082015250565b7f455243313135353a204552433131353552656365697665722072656a6563746560008201527f6420746f6b656e73000000000000000000000000000000000000000000000000602082015250565b7f455243313135353a2062616c616e636520717565727920666f7220746865207a60008201527f65726f2061646472657373000000000000000000000000000000000000000000602082015250565b7f4f776e61626c653a206e6577206f776e657220697320746865207a65726f206160008201527f6464726573730000000000000000000000000000000000000000000000000000602082015250565b7f455243313135353a2063616c6c6572206973206e6f74206f776e6572206e6f7260008201527f20617070726f7665640000000000000000000000000000000000000000000000602082015250565b7f455243313135353a207472616e7366657220746f20746865207a65726f20616460008201527f6472657373000000000000000000000000000000000000000000000000000000602082015250565b7f455243313135353a207472616e736665722063616c6c6572206973206e6f742060008201527f6f776e6572206e6f7220617070726f7665640000000000000000000000000000602082015250565b7f455243313135353a20696e73756666696369656e742062616c616e636520666f60008201527f72207472616e7366657200000000000000000000000000000000000000000000602082015250565b7f4f776e61626c653a2063616c6c6572206973206e6f7420746865206f776e6572600082015250565b7f455243313135353a2073657474696e6720617070726f76616c2073746174757360008201527f20666f722073656c660000000000000000000000000000000000000000000000602082015250565b7f455243313135353a206163636f756e747320616e6420696473206c656e67746860008201527f206d69736d617463680000000000000000000000000000000000000000000000602082015250565b7f455243313135353a2069647320616e6420616d6f756e7473206c656e6774682060008201527f6d69736d61746368000000000000000000000000000000000000000000000000602082015250565b7f455243313135353a206d696e7420746f20746865207a65726f2061646472657360008201527f7300000000000000000000000000000000000000000000000000000000000000602082015250565b600060443d1015612ee457612f67565b612eec61273d565b60043d036004823e80513d602482011167ffffffffffffffff82111715612f14575050612f67565b808201805167ffffffffffffffff811115612f325750505050612f67565b80602083010160043d038501811115612f4f575050505050612f67565b612f5e826020018501866129b0565b82955050505050505b90565b612f73816128c8565b8114612f7e57600080fd5b50565b612f8a816128da565b8114612f9557600080fd5b50565b612fa1816128e6565b8114612fac57600080fd5b50565b612fb881612932565b8114612fc357600080fd5b5056fea2646970667358221220a76a2365e492d42705d0c36d08a5f81232bcc7a5cc42e3c4014938bcd469b1f964736f6c63430008020033",
  "linkReferences": {},
  "deployedLinkReferences": {}
}