{
  "_format": "hh-sol-artifact-1",
  "contractName": "Penguins",
  "sourceName": "contracts/tokens/Penguins_1155.sol",
  "abi": [
    {
      "inputs": [],
      "stateMutability": "nonpayable",
      "type": "constructor"
    },
    {
      "anonymous": false,
      "inputs": [
        {
          "indexed": true,
          "internalType": "address",
          "name": "account",
          "type": "address"
        },
        {
          "indexed": true,
          "internalType": "address",
          "name": "operator",
          "type": "address"
        },
        {
          "indexed": false,
          "internalType": "bool",
          "name": "approved",
          "type": "bool"
        }
      ],
      "name": "ApprovalForAll",
      "type": "event"
    },
    {
      "anonymous": false,
      "inputs": [
        {
          "indexed": true,
          "internalType": "address",
          "name": "previousOwner",
          "type": "address"
        },
        {
          "indexed": true,
          "internalType": "address",
          "name": "newOwner",
          "type": "address"
        }
      ],
      "name": "OwnershipTransferred",
      "type": "event"
    },
    {
      "anonymous": false,
      "inputs": [
        {
          "indexed": true,
          "internalType": "address",
          "name": "operator",
          "type": "address"
        },
        {
          "indexed": true,
          "internalType": "address",
          "name": "from",
          "type": "address"
        },
        {
          "indexed": true,
          "internalType": "address",
          "name": "to",
          "type": "address"
        },
        {
          "indexed": false,
          "internalType": "uint256[]",
          "name": "ids",
          "type": "uint256[]"
        },
        {
          "indexed": false,
          "internalType": "uint256[]",
          "name": "values",
          "type": "uint256[]"
        }
      ],
      "name": "TransferBatch",
      "type": "event"
    },
    {
      "anonymous": false,
      "inputs": [
        {
          "indexed": true,
          "internalType": "address",
          "name": "operator",
          "type": "address"
        },
        {
          "indexed": true,
          "internalType": "address",
          "name": "from",
          "type": "address"
        },
        {
          "indexed": true,
          "internalType": "address",
          "name": "to",
          "type": "address"
        },
        {
          "indexed": false,
          "internalType": "uint256",
          "name": "id",
          "type": "uint256"
        },
        {
          "indexed": false,
          "internalType": "uint256",
          "name": "value",
          "type": "uint256"
        }
      ],
      "name": "TransferSingle",
      "type": "event"
    },
    {
      "anonymous": false,
      "inputs": [
        {
          "indexed": false,
          "internalType": "string",
          "name": "value",
          "type": "string"
        },
        {
          "indexed": true,
          "internalType": "uint256",
          "name": "id",
          "type": "uint256"
        }
      ],
      "name": "URI",
      "type": "event"
    },
    {
      "inputs": [
        {
          "internalType": "address",
          "name": "account",
          "type": "address"
        },
        {
          "internalType": "uint256",
          "name": "id",
          "type": "uint256"
        }
      ],
      "name": "balanceOf",
      "outputs": [
        {
          "internalType": "uint256",
          "name": "",
          "type": "uint256"
        }
      ],
      "stateMutability": "view",
      "type": "function"
    },
    {
      "inputs": [
        {
          "internalType": "address[]",
          "name": "accounts",
          "type": "address[]"
        },
        {
          "internalType": "uint256[]",
          "name": "ids",
          "type": "uint256[]"
        }
      ],
      "name": "balanceOfBatch",
      "outputs": [
        {
          "internalType": "uint256[]",
          "name": "",
          "type": "uint256[]"
        }
      ],
      "stateMutability": "view",
      "type": "function"
    },
    {
      "inputs": [
        {
          "internalType": "address",
          "name": "account",
          "type": "address"
        },
        {
          "internalType": "address",
          "name": "operator",
          "type": "address"
        }
      ],
      "name": "isApprovedForAll",
      "outputs": [
        {
          "internalType": "bool",
          "name": "",
          "type": "bool"
        }
      ],
      "stateMutability": "view",
      "type": "function"
    },
    {
      "inputs": [
        {
          "internalType": "address",
          "name": "account",
          "type": "address"
        },
        {
          "internalType": "uint256",
          "name": "id",
          "type": "uint256"
        },
        {
          "internalType": "uint256",
          "name": "amount",
          "type": "uint256"
        },
        {
          "internalType": "bytes",
          "name": "data",
          "type": "bytes"
        }
      ],
      "name": "mint",
      "outputs": [],
      "stateMutability": "nonpayable",
      "type": "function"
    },
    {
      "inputs": [
        {
          "internalType": "address",
          "name": "to",
          "type": "address"
        },
        {
          "internalType": "uint256[]",
          "name": "ids",
          "type": "uint256[]"
        },
        {
          "internalType": "uint256[]",
          "name": "amounts",
          "type": "uint256[]"
        },
        {
          "internalType": "bytes",
          "name": "data",
          "type": "bytes"
        }
      ],
      "name": "mintBatch",
      "outputs": [],
      "stateMutability": "nonpayable",
      "type": "function"
    },
    {
      "inputs": [],
      "name": "owner",
      "outputs": [
        {
          "internalType": "address",
          "name": "",
          "type": "address"
        }
      ],
      "stateMutability": "view",
      "type": "function"
    },
    {
      "inputs": [],
      "name": "renounceOwnership",
      "outputs": [],
      "stateMutability": "nonpayable",
      "type": "function"
    },
    {
      "inputs": [
        {
          "internalType": "address",
          "name": "from",
          "type": "address"
        },
        {
          "internalType": "address",
          "name": "to",
          "type": "address"
        },
        {
          "internalType": "uint256[]",
          "name": "ids",
          "type": "uint256[]"
        },
        {
          "internalType": "uint256[]",
          "name": "amounts",
          "type": "uint256[]"
        },
        {
          "internalType": "bytes",
          "name": "data",
          "type": "bytes"
        }
      ],
      "name": "safeBatchTransferFrom",
      "outputs": [],
      "stateMutability": "nonpayable",
      "type": "function"
    },
    {
      "inputs": [
        {
          "internalType": "address",
          "name": "from",
          "type": "address"
        },
        {
          "internalType": "address",
          "name": "to",
          "type": "address"
        },
        {
          "internalType": "uint256",
          "name": "id",
          "type": "uint256"
        },
        {
          "internalType": "uint256",
          "name": "amount",
          "type": "uint256"
        },
        {
          "internalType": "bytes",
          "name": "data",
          "type": "bytes"
        }
      ],
      "name": "safeTransferFrom",
      "outputs": [],
      "stateMutability": "nonpayable",
      "type": "function"
    },
    {
      "inputs": [
        {
          "internalType": "address",
          "name": "operator",
          "type": "address"
        },
        {
          "internalType": "bool",
          "name": "approved",
          "type": "bool"
        }
      ],
      "name": "setApprovalForAll",
      "outputs": [],
      "stateMutability": "nonpayable",
      "type": "function"
    },
    {
      "inputs": [
        {
          "internalType": "string",
          "name": "newuri",
          "type": "string"
        }
      ],
      "name": "setURI",
      "outputs": [],
      "stateMutability": "nonpayable",
      "type": "function"
    },
    {
      "inputs": [
        {
          "internalType": "bytes4",
          "name": "interfaceId",
          "type": "bytes4"
        }
      ],
      "name": "supportsInterface",
      "outputs": [
        {
          "internalType": "bool",
          "name": "",
          "type": "bool"
        }
      ],
      "stateMutability": "view",
      "type": "function"
    },
    {
      "inputs": [
        {
          "internalType": "address",
          "name": "newOwner",
          "type": "address"
        }
      ],
      "name": "transferOwnership",
      "outputs": [],
      "stateMutability": "nonpayable",
      "type": "function"
    },
    {
      "inputs": [
        {
          "internalType": "uint256",
          "name": "",
          "type": "uint256"
        }
      ],
      "name": "uri",
      "outputs": [
        {
          "internalType": "string",
          "name": "",
          "type": "string"
        }
      ],
      "stateMutability": "view",
      "type": "function"
    }
  ],
  "bytecode": "0x60806040523480156200001157600080fd5b506040518060200160405280600081525062000033816200005a60201b60201c565b5062000054620000486200007660201b60201c565b6200007e60201b60201c565b62000259565b80600290805190602001906200007292919062000144565b5050565b600033905090565b6000600360009054906101000a900473ffffffffffffffffffffffffffffffffffffffff16905081600360006101000a81548173ffffffffffffffffffffffffffffffffffffffff021916908373ffffffffffffffffffffffffffffffffffffffff1602179055508173ffffffffffffffffffffffffffffffffffffffff168173ffffffffffffffffffffffffffffffffffffffff167f8be0079c531659141344cd1fd0a4f28419497f9722a3daafe3b4186f6b6457e060405160405180910390a35050565b8280546200015290620001f4565b90600052602060002090601f016020900481019282620001765760008555620001c2565b82601f106200019157805160ff1916838001178555620001c2565b82800160010185558215620001c2579182015b82811115620001c1578251825591602001919060010190620001a4565b5b509050620001d19190620001d5565b5090565b5b80821115620001f0576000816000905550600101620001d6565b5090565b600060028204905060018216806200020d57607f821691505b602082108114156200022457620002236200022a565b5b50919050565b7f4e487b7100000000000000000000000000000000000000000000000000000000600052602260045260246000fd5b6133e180620002696000396000f3fe608060405234801561001057600080fd5b50600436106100e95760003560e01c8063715018a61161008c578063a22cb46511610066578063a22cb46514610246578063e985e9c514610262578063f242432a14610292578063f2fde38b146102ae576100e9565b8063715018a614610202578063731133e91461020c5780638da5cb5b14610228576100e9565b80630e89341c116100c85780630e89341c1461016a5780631f7fdffa1461019a5780632eb2c2d6146101b65780634e1273f4146101d2576100e9565b8062fdd58e146100ee57806301ffc9a71461011e57806302fe53051461014e575b600080fd5b610108600480360381019061010391906122e6565b6102ca565b6040516101159190612ac3565b60405180910390f35b61013860048036038101906101339190612409565b610393565b60405161014591906128e6565b60405180910390f35b6101686004803603810190610163919061245b565b610475565b005b610184600480360381019061017f919061249c565b6104fd565b6040516101919190612901565b60405180910390f35b6101b460048036038101906101af91906121ff565b610591565b005b6101d060048036038101906101cb91906120b1565b61061f565b005b6101ec60048036038101906101e7919061239d565b6106c0565b6040516101f9919061288d565b60405180910390f35b61020a610871565b005b61022660048036038101906102219190612322565b6108f9565b005b610230610987565b60405161023d91906127b0565b60405180910390f35b610260600480360381019061025b91906122aa565b6109b1565b005b61027c60048036038101906102779190612075565b6109c7565b60405161028991906128e6565b60405180910390f35b6102ac60048036038101906102a79190612170565b610a5b565b005b6102c860048036038101906102c3919061204c565b610afc565b005b60008073ffffffffffffffffffffffffffffffffffffffff168373ffffffffffffffffffffffffffffffffffffffff16141561033b576040517f08c379a000000000000000000000000000000000000000000000000000000000815260040161033290612963565b60405180910390fd5b60008083815260200190815260200160002060008473ffffffffffffffffffffffffffffffffffffffff1673ffffffffffffffffffffffffffffffffffffffff16815260200190815260200160002054905092915050565b60007fd9b67a26000000000000000000000000000000000000000000000000000000007bffffffffffffffffffffffffffffffffffffffffffffffffffffffff1916827bffffffffffffffffffffffffffffffffffffffffffffffffffffffff1916148061045e57507f0e89341c000000000000000000000000000000000000000000000000000000007bffffffffffffffffffffffffffffffffffffffffffffffffffffffff1916827bffffffffffffffffffffffffffffffffffffffffffffffffffffffff1916145b8061046e575061046d82610bf4565b5b9050919050565b61047d610c5e565b73ffffffffffffffffffffffffffffffffffffffff1661049b610987565b73ffffffffffffffffffffffffffffffffffffffff16146104f1576040517f08c379a00000000000000000000000000000000000000000000000000000000081526004016104e890612a23565b60405180910390fd5b6104fa81610c66565b50565b60606002805461050c90612d63565b80601f016020809104026020016040519081016040528092919081815260200182805461053890612d63565b80156105855780601f1061055a57610100808354040283529160200191610585565b820191906000526020600020905b81548152906001019060200180831161056857829003601f168201915b50505050509050919050565b610599610c5e565b73ffffffffffffffffffffffffffffffffffffffff166105b7610987565b73ffffffffffffffffffffffffffffffffffffffff161461060d576040517f08c379a000000000000000000000000000000000000000000000000000000000815260040161060490612a23565b60405180910390fd5b61061984848484610c80565b50505050565b610627610c5e565b73ffffffffffffffffffffffffffffffffffffffff168573ffffffffffffffffffffffffffffffffffffffff16148061066d575061066c85610667610c5e565b6109c7565b5b6106ac576040517f08c379a00000000000000000000000000000000000000000000000000000000081526004016106a3906129e3565b60405180910390fd5b6106b98585858585610eea565b5050505050565b60608151835114610706576040517f08c379a00000000000000000000000000000000000000000000000000000000081526004016106fd90612a63565b60405180910390fd5b6000835167ffffffffffffffff811115610749577f4e487b7100000000000000000000000000000000000000000000000000000000600052604160045260246000fd5b6040519080825280602002602001820160405280156107775781602001602082028036833780820191505090505b50905060005b8451811015610866576108108582815181106107c2577f4e487b7100000000000000000000000000000000000000000000000000000000600052603260045260246000fd5b6020026020010151858381518110610803577f4e487b7100000000000000000000000000000000000000000000000000000000600052603260045260246000fd5b60200260200101516102ca565b828281518110610849577f4e487b7100000000000000000000000000000000000000000000000000000000600052603260045260246000fd5b6020026020010181815250508061085f90612dc6565b905061077d565b508091505092915050565b610879610c5e565b73ffffffffffffffffffffffffffffffffffffffff16610897610987565b73ffffffffffffffffffffffffffffffffffffffff16146108ed576040517f08c379a00000000000000000000000000000000000000000000000000000000081526004016108e490612a23565b60405180910390fd5b6108f7600061124a565b565b610901610c5e565b73ffffffffffffffffffffffffffffffffffffffff1661091f610987565b73ffffffffffffffffffffffffffffffffffffffff1614610975576040517f08c379a000000000000000000000000000000000000000000000000000000000815260040161096c90612a23565b60405180910390fd5b61098184848484611310565b50505050565b6000600360009054906101000a900473ffffffffffffffffffffffffffffffffffffffff16905090565b6109c36109bc610c5e565b83836114a6565b5050565b6000600160008473ffffffffffffffffffffffffffffffffffffffff1673ffffffffffffffffffffffffffffffffffffffff16815260200190815260200160002060008373ffffffffffffffffffffffffffffffffffffffff1673ffffffffffffffffffffffffffffffffffffffff16815260200190815260200160002060009054906101000a900460ff16905092915050565b610a63610c5e565b73ffffffffffffffffffffffffffffffffffffffff168573ffffffffffffffffffffffffffffffffffffffff161480610aa95750610aa885610aa3610c5e565b6109c7565b5b610ae8576040517f08c379a0000000000000000000000000000000000000000000000000000000008152600401610adf906129a3565b60405180910390fd5b610af58585858585611613565b5050505050565b610b04610c5e565b73ffffffffffffffffffffffffffffffffffffffff16610b22610987565b73ffffffffffffffffffffffffffffffffffffffff1614610b78576040517f08c379a0000000000000000000000000000000000000000000000000000000008152600401610b6f90612a23565b60405180910390fd5b600073ffffffffffffffffffffffffffffffffffffffff168173ffffffffffffffffffffffffffffffffffffffff161415610be8576040517f08c379a0000000000000000000000000000000000000000000000000000000008152600401610bdf90612983565b60405180910390fd5b610bf18161124a565b50565b60007f01ffc9a7000000000000000000000000000000000000000000000000000000007bffffffffffffffffffffffffffffffffffffffffffffffffffffffff1916827bffffffffffffffffffffffffffffffffffffffffffffffffffffffff1916149050919050565b600033905090565b8060029080519060200190610c7c929190611d44565b5050565b600073ffffffffffffffffffffffffffffffffffffffff168473ffffffffffffffffffffffffffffffffffffffff161415610cf0576040517f08c379a0000000000000000000000000000000000000000000000000000000008152600401610ce790612aa3565b60405180910390fd5b8151835114610d34576040517f08c379a0000000000000000000000000000000000000000000000000000000008152600401610d2b90612a83565b60405180910390fd5b6000610d3e610c5e565b9050610d4f81600087878787611895565b60005b8451811015610e5457838181518110610d94577f4e487b7100000000000000000000000000000000000000000000000000000000600052603260045260246000fd5b6020026020010151600080878481518110610dd8577f4e487b7100000000000000000000000000000000000000000000000000000000600052603260045260246000fd5b6020026020010151815260200190815260200160002060008873ffffffffffffffffffffffffffffffffffffffff1673ffffffffffffffffffffffffffffffffffffffff1681526020019081526020016000206000828254610e3a9190612c57565b925050819055508080610e4c90612dc6565b915050610d52565b508473ffffffffffffffffffffffffffffffffffffffff16600073ffffffffffffffffffffffffffffffffffffffff168273ffffffffffffffffffffffffffffffffffffffff167f4a39dc06d4c0dbc64b70af90fd698a233a518aa5d07e595d983b8c0526c8f7fb8787604051610ecc9291906128af565b60405180910390a4610ee38160008787878761189d565b5050505050565b8151835114610f2e576040517f08c379a0000000000000000000000000000000000000000000000000000000008152600401610f2590612a83565b60405180910390fd5b600073ffffffffffffffffffffffffffffffffffffffff168473ffffffffffffffffffffffffffffffffffffffff161415610f9e576040517f08c379a0000000000000000000000000000000000000000000000000000000008152600401610f95906129c3565b60405180910390fd5b6000610fa8610c5e565b9050610fb8818787878787611895565b60005b84518110156111b5576000858281518110610fff577f4e487b7100000000000000000000000000000000000000000000000000000000600052603260045260246000fd5b602002602001015190506000858381518110611044577f4e487b7100000000000000000000000000000000000000000000000000000000600052603260045260246000fd5b60200260200101519050600080600084815260200190815260200160002060008b73ffffffffffffffffffffffffffffffffffffffff1673ffffffffffffffffffffffffffffffffffffffff168152602001908152602001600020549050818110156110e5576040517f08c379a00000000000000000000000000000000000000000000000000000000081526004016110dc90612a03565b60405180910390fd5b81810360008085815260200190815260200160002060008c73ffffffffffffffffffffffffffffffffffffffff1673ffffffffffffffffffffffffffffffffffffffff168152602001908152602001600020819055508160008085815260200190815260200160002060008b73ffffffffffffffffffffffffffffffffffffffff1673ffffffffffffffffffffffffffffffffffffffff168152602001908152602001600020600082825461119a9190612c57565b92505081905550505050806111ae90612dc6565b9050610fbb565b508473ffffffffffffffffffffffffffffffffffffffff168673ffffffffffffffffffffffffffffffffffffffff168273ffffffffffffffffffffffffffffffffffffffff167f4a39dc06d4c0dbc64b70af90fd698a233a518aa5d07e595d983b8c0526c8f7fb878760405161122c9291906128af565b60405180910390a461124281878787878761189d565b505050505050565b6000600360009054906101000a900473ffffffffffffffffffffffffffffffffffffffff16905081600360006101000a81548173ffffffffffffffffffffffffffffffffffffffff021916908373ffffffffffffffffffffffffffffffffffffffff1602179055508173ffffffffffffffffffffffffffffffffffffffff168173ffffffffffffffffffffffffffffffffffffffff167f8be0079c531659141344cd1fd0a4f28419497f9722a3daafe3b4186f6b6457e060405160405180910390a35050565b600073ffffffffffffffffffffffffffffffffffffffff168473ffffffffffffffffffffffffffffffffffffffff161415611380576040517f08c379a000000000000000000000000000000000000000000000000000000000815260040161137790612aa3565b60405180910390fd5b600061138a610c5e565b90506113ab8160008761139c88611a84565b6113a588611a84565b87611895565b8260008086815260200190815260200160002060008773ffffffffffffffffffffffffffffffffffffffff1673ffffffffffffffffffffffffffffffffffffffff168152602001908152602001600020600082825461140a9190612c57565b925050819055508473ffffffffffffffffffffffffffffffffffffffff16600073ffffffffffffffffffffffffffffffffffffffff168273ffffffffffffffffffffffffffffffffffffffff167fc3d58168c5ae7397731d063d5bbf3d657854427343f4c083240f7aacaa2d0f628787604051611488929190612ade565b60405180910390a461149f81600087878787611b4a565b5050505050565b8173ffffffffffffffffffffffffffffffffffffffff168373ffffffffffffffffffffffffffffffffffffffff161415611515576040517f08c379a000000000000000000000000000000000000000000000000000000000815260040161150c90612a43565b60405180910390fd5b80600160008573ffffffffffffffffffffffffffffffffffffffff1673ffffffffffffffffffffffffffffffffffffffff16815260200190815260200160002060008473ffffffffffffffffffffffffffffffffffffffff1673ffffffffffffffffffffffffffffffffffffffff16815260200190815260200160002060006101000a81548160ff0219169083151502179055508173ffffffffffffffffffffffffffffffffffffffff168373ffffffffffffffffffffffffffffffffffffffff167f17307eab39ab6107e8899845ad3d59bd9653f200f220920489ca2b5937696c318360405161160691906128e6565b60405180910390a3505050565b600073ffffffffffffffffffffffffffffffffffffffff168473ffffffffffffffffffffffffffffffffffffffff161415611683576040517f08c379a000000000000000000000000000000000000000000000000000000000815260040161167a906129c3565b60405180910390fd5b600061168d610c5e565b90506116ad81878761169e88611a84565b6116a788611a84565b87611895565b600080600086815260200190815260200160002060008873ffffffffffffffffffffffffffffffffffffffff1673ffffffffffffffffffffffffffffffffffffffff16815260200190815260200160002054905083811015611744576040517f08c379a000000000000000000000000000000000000000000000000000000000815260040161173b90612a03565b60405180910390fd5b83810360008087815260200190815260200160002060008973ffffffffffffffffffffffffffffffffffffffff1673ffffffffffffffffffffffffffffffffffffffff168152602001908152602001600020819055508360008087815260200190815260200160002060008873ffffffffffffffffffffffffffffffffffffffff1673ffffffffffffffffffffffffffffffffffffffff16815260200190815260200160002060008282546117f99190612c57565b925050819055508573ffffffffffffffffffffffffffffffffffffffff168773ffffffffffffffffffffffffffffffffffffffff168373ffffffffffffffffffffffffffffffffffffffff167fc3d58168c5ae7397731d063d5bbf3d657854427343f4c083240f7aacaa2d0f628888604051611876929190612ade565b60405180910390a461188c828888888888611b4a565b50505050505050565b505050505050565b6118bc8473ffffffffffffffffffffffffffffffffffffffff16611d31565b15611a7c578373ffffffffffffffffffffffffffffffffffffffff1663bc197c8187878686866040518663ffffffff1660e01b81526004016119029594939291906127cb565b602060405180830381600087803b15801561191c57600080fd5b505af192505050801561194d57506040513d601f19601f8201168201806040525081019061194a9190612432565b60015b6119f357611959612e9c565b806308c379a014156119b6575061196e6132b9565b8061197957506119b8565b806040517f08c379a00000000000000000000000000000000000000000000000000000000081526004016119ad9190612901565b60405180910390fd5b505b6040517f08c379a00000000000000000000000000000000000000000000000000000000081526004016119ea90612923565b60405180910390fd5b63bc197c8160e01b7bffffffffffffffffffffffffffffffffffffffffffffffffffffffff1916817bffffffffffffffffffffffffffffffffffffffffffffffffffffffff191614611a7a576040517f08c379a0000000000000000000000000000000000000000000000000000000008152600401611a7190612943565b60405180910390fd5b505b505050505050565b60606000600167ffffffffffffffff811115611ac9577f4e487b7100000000000000000000000000000000000000000000000000000000600052604160045260246000fd5b604051908082528060200260200182016040528015611af75781602001602082028036833780820191505090505b5090508281600081518110611b35577f4e487b7100000000000000000000000000000000000000000000000000000000600052603260045260246000fd5b60200260200101818152505080915050919050565b611b698473ffffffffffffffffffffffffffffffffffffffff16611d31565b15611d29578373ffffffffffffffffffffffffffffffffffffffff1663f23a6e6187878686866040518663ffffffff1660e01b8152600401611baf959493929190612833565b602060405180830381600087803b158015611bc957600080fd5b505af1925050508015611bfa57506040513d601f19601f82011682018060405250810190611bf79190612432565b60015b611ca057611c06612e9c565b806308c379a01415611c635750611c1b6132b9565b80611c265750611c65565b806040517f08c379a0000000000000000000000000000000000000000000000000000000008152600401611c5a9190612901565b60405180910390fd5b505b6040517f08c379a0000000000000000000000000000000000000000000000000000000008152600401611c9790612923565b60405180910390fd5b63f23a6e6160e01b7bffffffffffffffffffffffffffffffffffffffffffffffffffffffff1916817bffffffffffffffffffffffffffffffffffffffffffffffffffffffff191614611d27576040517f08c379a0000000000000000000000000000000000000000000000000000000008152600401611d1e90612943565b60405180910390fd5b505b505050505050565b600080823b905060008111915050919050565b828054611d5090612d63565b90600052602060002090601f016020900481019282611d725760008555611db9565b82601f10611d8b57805160ff1916838001178555611db9565b82800160010185558215611db9579182015b82811115611db8578251825591602001919060010190611d9d565b5b509050611dc69190611dca565b5090565b5b80821115611de3576000816000905550600101611dcb565b5090565b6000611dfa611df584612b2c565b612b07565b90508083825260208201905082856020860282011115611e1957600080fd5b60005b85811015611e495781611e2f8882611f3b565b845260208401935060208301925050600181019050611e1c565b5050509392505050565b6000611e66611e6184612b58565b612b07565b90508083825260208201905082856020860282011115611e8557600080fd5b60005b85811015611eb55781611e9b8882612037565b845260208401935060208301925050600181019050611e88565b5050509392505050565b6000611ed2611ecd84612b84565b612b07565b905082815260208101848484011115611eea57600080fd5b611ef5848285612d21565b509392505050565b6000611f10611f0b84612bb5565b612b07565b905082815260208101848484011115611f2857600080fd5b611f33848285612d21565b509392505050565b600081359050611f4a8161334f565b92915050565b600082601f830112611f6157600080fd5b8135611f71848260208601611de7565b91505092915050565b600082601f830112611f8b57600080fd5b8135611f9b848260208601611e53565b91505092915050565b600081359050611fb381613366565b92915050565b600081359050611fc88161337d565b92915050565b600081519050611fdd8161337d565b92915050565b600082601f830112611ff457600080fd5b8135612004848260208601611ebf565b91505092915050565b600082601f83011261201e57600080fd5b813561202e848260208601611efd565b91505092915050565b60008135905061204681613394565b92915050565b60006020828403121561205e57600080fd5b600061206c84828501611f3b565b91505092915050565b6000806040838503121561208857600080fd5b600061209685828601611f3b565b92505060206120a785828601611f3b565b9150509250929050565b600080600080600060a086880312156120c957600080fd5b60006120d788828901611f3b565b95505060206120e888828901611f3b565b945050604086013567ffffffffffffffff81111561210557600080fd5b61211188828901611f7a565b935050606086013567ffffffffffffffff81111561212e57600080fd5b61213a88828901611f7a565b925050608086013567ffffffffffffffff81111561215757600080fd5b61216388828901611fe3565b9150509295509295909350565b600080600080600060a0868803121561218857600080fd5b600061219688828901611f3b565b95505060206121a788828901611f3b565b94505060406121b888828901612037565b93505060606121c988828901612037565b925050608086013567ffffffffffffffff8111156121e657600080fd5b6121f288828901611fe3565b9150509295509295909350565b6000806000806080858703121561221557600080fd5b600061222387828801611f3b565b945050602085013567ffffffffffffffff81111561224057600080fd5b61224c87828801611f7a565b935050604085013567ffffffffffffffff81111561226957600080fd5b61227587828801611f7a565b925050606085013567ffffffffffffffff81111561229257600080fd5b61229e87828801611fe3565b91505092959194509250565b600080604083850312156122bd57600080fd5b60006122cb85828601611f3b565b92505060206122dc85828601611fa4565b9150509250929050565b600080604083850312156122f957600080fd5b600061230785828601611f3b565b925050602061231885828601612037565b9150509250929050565b6000806000806080858703121561233857600080fd5b600061234687828801611f3b565b945050602061235787828801612037565b935050604061236887828801612037565b925050606085013567ffffffffffffffff81111561238557600080fd5b61239187828801611fe3565b91505092959194509250565b600080604083850312156123b057600080fd5b600083013567ffffffffffffffff8111156123ca57600080fd5b6123d685828601611f50565b925050602083013567ffffffffffffffff8111156123f357600080fd5b6123ff85828601611f7a565b9150509250929050565b60006020828403121561241b57600080fd5b600061242984828501611fb9565b91505092915050565b60006020828403121561244457600080fd5b600061245284828501611fce565b91505092915050565b60006020828403121561246d57600080fd5b600082013567ffffffffffffffff81111561248757600080fd5b6124938482850161200d565b91505092915050565b6000602082840312156124ae57600080fd5b60006124bc84828501612037565b91505092915050565b60006124d18383612792565b60208301905092915050565b6124e681612cad565b82525050565b60006124f782612bf6565b6125018185612c24565b935061250c83612be6565b8060005b8381101561253d57815161252488826124c5565b975061252f83612c17565b925050600181019050612510565b5085935050505092915050565b61255381612cbf565b82525050565b600061256482612c01565b61256e8185612c35565b935061257e818560208601612d30565b61258781612ebe565b840191505092915050565b600061259d82612c0c565b6125a78185612c46565b93506125b7818560208601612d30565b6125c081612ebe565b840191505092915050565b60006125d8603483612c46565b91506125e382612edc565b604082019050919050565b60006125fb602883612c46565b915061260682612f2b565b604082019050919050565b600061261e602b83612c46565b915061262982612f7a565b604082019050919050565b6000612641602683612c46565b915061264c82612fc9565b604082019050919050565b6000612664602983612c46565b915061266f82613018565b604082019050919050565b6000612687602583612c46565b915061269282613067565b604082019050919050565b60006126aa603283612c46565b91506126b5826130b6565b604082019050919050565b60006126cd602a83612c46565b91506126d882613105565b604082019050919050565b60006126f0602083612c46565b91506126fb82613154565b602082019050919050565b6000612713602983612c46565b915061271e8261317d565b604082019050919050565b6000612736602983612c46565b9150612741826131cc565b604082019050919050565b6000612759602883612c46565b91506127648261321b565b604082019050919050565b600061277c602183612c46565b91506127878261326a565b604082019050919050565b61279b81612d17565b82525050565b6127aa81612d17565b82525050565b60006020820190506127c560008301846124dd565b92915050565b600060a0820190506127e060008301886124dd565b6127ed60208301876124dd565b81810360408301526127ff81866124ec565b9050818103606083015261281381856124ec565b905081810360808301526128278184612559565b90509695505050505050565b600060a08201905061284860008301886124dd565b61285560208301876124dd565b61286260408301866127a1565b61286f60608301856127a1565b81810360808301526128818184612559565b90509695505050505050565b600060208201905081810360008301526128a781846124ec565b905092915050565b600060408201905081810360008301526128c981856124ec565b905081810360208301526128dd81846124ec565b90509392505050565b60006020820190506128fb600083018461254a565b92915050565b6000602082019050818103600083015261291b8184612592565b905092915050565b6000602082019050818103600083015261293c816125cb565b9050919050565b6000602082019050818103600083015261295c816125ee565b9050919050565b6000602082019050818103600083015261297c81612611565b9050919050565b6000602082019050818103600083015261299c81612634565b9050919050565b600060208201905081810360008301526129bc81612657565b9050919050565b600060208201905081810360008301526129dc8161267a565b9050919050565b600060208201905081810360008301526129fc8161269d565b9050919050565b60006020820190508181036000830152612a1c816126c0565b9050919050565b60006020820190508181036000830152612a3c816126e3565b9050919050565b60006020820190508181036000830152612a5c81612706565b9050919050565b60006020820190508181036000830152612a7c81612729565b9050919050565b60006020820190508181036000830152612a9c8161274c565b9050919050565b60006020820190508181036000830152612abc8161276f565b9050919050565b6000602082019050612ad860008301846127a1565b92915050565b6000604082019050612af360008301856127a1565b612b0060208301846127a1565b9392505050565b6000612b11612b22565b9050612b1d8282612d95565b919050565b6000604051905090565b600067ffffffffffffffff821115612b4757612b46612e6d565b5b602082029050602081019050919050565b600067ffffffffffffffff821115612b7357612b72612e6d565b5b602082029050602081019050919050565b600067ffffffffffffffff821115612b9f57612b9e612e6d565b5b612ba882612ebe565b9050602081019050919050565b600067ffffffffffffffff821115612bd057612bcf612e6d565b5b612bd982612ebe565b9050602081019050919050565b6000819050602082019050919050565b600081519050919050565b600081519050919050565b600081519050919050565b6000602082019050919050565b600082825260208201905092915050565b600082825260208201905092915050565b600082825260208201905092915050565b6000612c6282612d17565b9150612c6d83612d17565b9250827fffffffffffffffffffffffffffffffffffffffffffffffffffffffffffffffff03821115612ca257612ca1612e0f565b5b828201905092915050565b6000612cb882612cf7565b9050919050565b60008115159050919050565b60007fffffffff0000000000000000000000000000000000000000000000000000000082169050919050565b600073ffffffffffffffffffffffffffffffffffffffff82169050919050565b6000819050919050565b82818337600083830152505050565b60005b83811015612d4e578082015181840152602081019050612d33565b83811115612d5d576000848401525b50505050565b60006002820490506001821680612d7b57607f821691505b60208210811415612d8f57612d8e612e3e565b5b50919050565b612d9e82612ebe565b810181811067ffffffffffffffff82111715612dbd57612dbc612e6d565b5b80604052505050565b6000612dd182612d17565b91507fffffffffffffffffffffffffffffffffffffffffffffffffffffffffffffffff821415612e0457612e03612e0f565b5b600182019050919050565b7f4e487b7100000000000000000000000000000000000000000000000000000000600052601160045260246000fd5b7f4e487b7100000000000000000000000000000000000000000000000000000000600052602260045260246000fd5b7f4e487b7100000000000000000000000000000000000000000000000000000000600052604160045260246000fd5b600060033d1115612ebb5760046000803e612eb8600051612ecf565b90505b90565b6000601f19601f8301169050919050565b60008160e01c9050919050565b7f455243313135353a207472616e7366657220746f206e6f6e204552433131353560008201527f526563656976657220696d706c656d656e746572000000000000000000000000602082015250565b7f455243313135353a204552433131353552656365697665722072656a6563746560008201527f6420746f6b656e73000000000000000000000000000000000000000000000000602082015250565b7f455243313135353a2062616c616e636520717565727920666f7220746865207a60008201527f65726f2061646472657373000000000000000000000000000000000000000000602082015250565b7f4f776e61626c653a206e6577206f776e657220697320746865207a65726f206160008201527f6464726573730000000000000000000000000000000000000000000000000000602082015250565b7f455243313135353a2063616c6c6572206973206e6f74206f776e6572206e6f7260008201527f20617070726f7665640000000000000000000000000000000000000000000000602082015250565b7f455243313135353a207472616e7366657220746f20746865207a65726f20616460008201527f6472657373000000000000000000000000000000000000000000000000000000602082015250565b7f455243313135353a207472616e736665722063616c6c6572206973206e6f742060008201527f6f776e6572206e6f7220617070726f7665640000000000000000000000000000602082015250565b7f455243313135353a20696e73756666696369656e742062616c616e636520666f60008201527f72207472616e7366657200000000000000000000000000000000000000000000602082015250565b7f4f776e61626c653a2063616c6c6572206973206e6f7420746865206f776e6572600082015250565b7f455243313135353a2073657474696e6720617070726f76616c2073746174757360008201527f20666f722073656c660000000000000000000000000000000000000000000000602082015250565b7f455243313135353a206163636f756e747320616e6420696473206c656e67746860008201527f206d69736d617463680000000000000000000000000000000000000000000000602082015250565b7f455243313135353a2069647320616e6420616d6f756e7473206c656e6774682060008201527f6d69736d61746368000000000000000000000000000000000000000000000000602082015250565b7f455243313135353a206d696e7420746f20746865207a65726f2061646472657360008201527f7300000000000000000000000000000000000000000000000000000000000000602082015250565b600060443d10156132c95761334c565b6132d1612b22565b60043d036004823e80513d602482011167ffffffffffffffff821117156132f957505061334c565b808201805167ffffffffffffffff811115613317575050505061334c565b80602083010160043d03850181111561333457505050505061334c565b61334382602001850186612d95565b82955050505050505b90565b61335881612cad565b811461336357600080fd5b50565b61336f81612cbf565b811461337a57600080fd5b50565b61338681612ccb565b811461339157600080fd5b50565b61339d81612d17565b81146133a857600080fd5b5056fea2646970667358221220ce6a45e7ffb8dc5d1530dfac07b2303fb2f30ab17d6b4eec0aa09ba711ed7a4064736f6c63430008020033",
  "linkReferences": {},
  "deployedLinkReferences": {}
}