{
  "_format": "hh-sol-artifact-1",
  "contractName": "FaucetV2",
  "sourceName": "contracts/faucet/FaucetV2.sol",
  "abi": [
    {
      "inputs": [],
      "stateMutability": "nonpayable",
      "type": "constructor"
    },
    {
      "inputs": [],
      "name": "erc1155Address",
      "outputs": [
        {
          "internalType": "address",
          "name": "",
          "type": "address"
        }
      ],
      "stateMutability": "view",
      "type": "function"
    },
    {
      "inputs": [],
      "name": "erc20Address",
      "outputs": [
        {
          "internalType": "address",
          "name": "",
          "type": "address"
        }
      ],
      "stateMutability": "view",
      "type": "function"
    },
    {
      "inputs": [],
      "name": "erc721Address",
      "outputs": [
        {
          "internalType": "address",
          "name": "",
          "type": "address"
        }
      ],
      "stateMutability": "view",
      "type": "function"
    },
    {
      "inputs": [],
      "name": "get1000Erc1155Tokens",
      "outputs": [],
      "stateMutability": "nonpayable",
      "type": "function"
    },
    {
      "inputs": [],
      "name": "get300Erc20Tokens",
      "outputs": [],
      "stateMutability": "nonpayable",
      "type": "function"
    },
    {
      "inputs": [],
      "name": "get3Erc721Tokens",
      "outputs": [],
      "stateMutability": "nonpayable",
      "type": "function"
    },
    {
      "inputs": [],
      "name": "manager",
      "outputs": [
        {
          "internalType": "address",
          "name": "",
          "type": "address"
        }
      ],
      "stateMutability": "view",
      "type": "function"
    },
    {
      "inputs": [
        {
          "internalType": "address",
          "name": "",
          "type": "address"
        },
        {
          "internalType": "address",
          "name": "",
          "type": "address"
        },
        {
          "internalType": "uint256[]",
          "name": "",
          "type": "uint256[]"
        },
        {
          "internalType": "uint256[]",
          "name": "",
          "type": "uint256[]"
        },
        {
          "internalType": "bytes",
          "name": "",
          "type": "bytes"
        }
      ],
      "name": "onERC1155BatchReceived",
      "outputs": [
        {
          "internalType": "bytes4",
          "name": "",
          "type": "bytes4"
        }
      ],
      "stateMutability": "nonpayable",
      "type": "function"
    },
    {
      "inputs": [
        {
          "internalType": "address",
          "name": "",
          "type": "address"
        },
        {
          "internalType": "address",
          "name": "",
          "type": "address"
        },
        {
          "internalType": "uint256",
          "name": "",
          "type": "uint256"
        },
        {
          "internalType": "uint256",
          "name": "",
          "type": "uint256"
        },
        {
          "internalType": "bytes",
          "name": "",
          "type": "bytes"
        }
      ],
      "name": "onERC1155Received",
      "outputs": [
        {
          "internalType": "bytes4",
          "name": "",
          "type": "bytes4"
        }
      ],
      "stateMutability": "nonpayable",
      "type": "function"
    },
    {
      "inputs": [
        {
          "internalType": "bytes4",
          "name": "interfaceId",
          "type": "bytes4"
        }
      ],
      "name": "supportsInterface",
      "outputs": [
        {
          "internalType": "bool",
          "name": "",
          "type": "bool"
        }
      ],
      "stateMutability": "view",
      "type": "function"
    }
  ],
  "bytecode": "0x608060405234801561001057600080fd5b50336000806101000a81548173ffffffffffffffffffffffffffffffffffffffff021916908373ffffffffffffffffffffffffffffffffffffffff160217905550600060405161005f906101a3565b604051809103906000f08015801561007b573d6000803e3d6000fd5b50905080600160006101000a81548173ffffffffffffffffffffffffffffffffffffffff021916908373ffffffffffffffffffffffffffffffffffffffff16021790555060006040516100cd906101b1565b604051809103906000f0801580156100e9573d6000803e3d6000fd5b50905080600260006101000a81548173ffffffffffffffffffffffffffffffffffffffff021916908373ffffffffffffffffffffffffffffffffffffffff160217905550600060405161013b906101bf565b604051809103906000f080158015610157573d6000803e3d6000fd5b50905080600360006101000a81548173ffffffffffffffffffffffffffffffffffffffff021916908373ffffffffffffffffffffffffffffffffffffffff1602179055505050506101cd565b611a988062000e4d83390190565b612e6180620028e583390190565b613265806200574683390190565b610c7080620001dd6000396000f3fe608060405234801561001057600080fd5b506004361061009e5760003560e01c8063481c6a7511610066578063481c6a7514610137578063708be23d14610155578063812af36b1461015f578063bc197c8114610169578063f23a6e61146101995761009e565b806301ffc9a7146100a357806305142002146100d357806317ed21f2146100f15780632352a864146100fb578063276184ae14610119575b600080fd5b6100bd60048036038101906100b8919061092d565b6101c9565b6040516100ca9190610a0e565b60405180910390f35b6100db610243565b6040516100e891906109a1565b60405180910390f35b6100f9610269565b005b610103610412565b60405161011091906109a1565b60405180910390f35b610121610438565b60405161012e91906109a1565b60405180910390f35b61013f61045e565b60405161014c91906109a1565b60405180910390f35b61015d610482565b005b610167610515565b005b610183600480360381019061017e91906107b6565b6105d0565b6040516101909190610a29565b60405180910390f35b6101b360048036038101906101ae9190610875565b6105e5565b6040516101c09190610a29565b60405180910390f35b60007f4e2312e0000000000000000000000000000000000000000000000000000000007bffffffffffffffffffffffffffffffffffffffffffffffffffffffff1916827bffffffffffffffffffffffffffffffffffffffffffffffffffffffff1916148061023c575061023b826105fa565b5b9050919050565b600360009054906101000a900473ffffffffffffffffffffffffffffffffffffffff1681565b600260009054906101000a900473ffffffffffffffffffffffffffffffffffffffff1673ffffffffffffffffffffffffffffffffffffffff166340d097c3336040518263ffffffff1660e01b81526004016102c491906109a1565b600060405180830381600087803b1580156102de57600080fd5b505af11580156102f2573d6000803e3d6000fd5b50505050600260009054906101000a900473ffffffffffffffffffffffffffffffffffffffff1673ffffffffffffffffffffffffffffffffffffffff166340d097c3336040518263ffffffff1660e01b815260040161035191906109a1565b600060405180830381600087803b15801561036b57600080fd5b505af115801561037f573d6000803e3d6000fd5b50505050600260009054906101000a900473ffffffffffffffffffffffffffffffffffffffff1673ffffffffffffffffffffffffffffffffffffffff166340d097c3336040518263ffffffff1660e01b81526004016103de91906109a1565b600060405180830381600087803b1580156103f857600080fd5b505af115801561040c573d6000803e3d6000fd5b50505050565b600260009054906101000a900473ffffffffffffffffffffffffffffffffffffffff1681565b600160009054906101000a900473ffffffffffffffffffffffffffffffffffffffff1681565b60008054906101000a900473ffffffffffffffffffffffffffffffffffffffff1681565b600360009054906101000a900473ffffffffffffffffffffffffffffffffffffffff1673ffffffffffffffffffffffffffffffffffffffff166340c10f19336103e86040518363ffffffff1660e01b81526004016104e19291906109bc565b600060405180830381600087803b1580156104fb57600080fd5b505af115801561050f573d6000803e3d6000fd5b50505050565b600160009054906101000a900473ffffffffffffffffffffffffffffffffffffffff1673ffffffffffffffffffffffffffffffffffffffff1663a9059cbb33681043561a88293000006040518363ffffffff1660e01b815260040161057b9291906109e5565b602060405180830381600087803b15801561059557600080fd5b505af11580156105a9573d6000803e3d6000fd5b505050506040513d601f19601f820116820180604052508101906105cd9190610904565b50565b600063bc197c8160e01b905095945050505050565b600063f23a6e6160e01b905095945050505050565b60007f01ffc9a7000000000000000000000000000000000000000000000000000000007bffffffffffffffffffffffffffffffffffffffffffffffffffffffff1916827bffffffffffffffffffffffffffffffffffffffffffffffffffffffff1916149050919050565b600061067761067284610a69565b610a44565b9050808382526020820190508285602086028201111561069657600080fd5b60005b858110156106c657816106ac88826107a1565b845260208401935060208301925050600181019050610699565b5050509392505050565b60006106e36106de84610a95565b610a44565b9050828152602081018484840111156106fb57600080fd5b610706848285610b5e565b509392505050565b60008135905061071d81610bde565b92915050565b600082601f83011261073457600080fd5b8135610744848260208601610664565b91505092915050565b60008151905061075c81610bf5565b92915050565b60008135905061077181610c0c565b92915050565b600082601f83011261078857600080fd5b81356107988482602086016106d0565b91505092915050565b6000813590506107b081610c23565b92915050565b600080600080600060a086880312156107ce57600080fd5b60006107dc8882890161070e565b95505060206107ed8882890161070e565b945050604086013567ffffffffffffffff81111561080a57600080fd5b61081688828901610723565b935050606086013567ffffffffffffffff81111561083357600080fd5b61083f88828901610723565b925050608086013567ffffffffffffffff81111561085c57600080fd5b61086888828901610777565b9150509295509295909350565b600080600080600060a0868803121561088d57600080fd5b600061089b8882890161070e565b95505060206108ac8882890161070e565b94505060406108bd888289016107a1565b93505060606108ce888289016107a1565b925050608086013567ffffffffffffffff8111156108eb57600080fd5b6108f788828901610777565b9150509295509295909350565b60006020828403121561091657600080fd5b60006109248482850161074d565b91505092915050565b60006020828403121561093f57600080fd5b600061094d84828501610762565b91505092915050565b61095f81610ac6565b82525050565b61096e81610ad8565b82525050565b61097d81610ae4565b82525050565b61098c81610b3a565b82525050565b61099b81610b4c565b82525050565b60006020820190506109b66000830184610956565b92915050565b60006040820190506109d16000830185610956565b6109de6020830184610983565b9392505050565b60006040820190506109fa6000830185610956565b610a076020830184610992565b9392505050565b6000602082019050610a236000830184610965565b92915050565b6000602082019050610a3e6000830184610974565b92915050565b6000610a4e610a5f565b9050610a5a8282610b6d565b919050565b6000604051905090565b600067ffffffffffffffff821115610a8457610a83610b9e565b5b602082029050602081019050919050565b600067ffffffffffffffff821115610ab057610aaf610b9e565b5b610ab982610bcd565b9050602081019050919050565b6000610ad182610b10565b9050919050565b60008115159050919050565b60007fffffffff0000000000000000000000000000000000000000000000000000000082169050919050565b600073ffffffffffffffffffffffffffffffffffffffff82169050919050565b6000819050919050565b6000610b4582610b30565b9050919050565b6000610b5782610b30565b9050919050565b82818337600083830152505050565b610b7682610bcd565b810181811067ffffffffffffffff82111715610b9557610b94610b9e565b5b80604052505050565b7f4e487b7100000000000000000000000000000000000000000000000000000000600052604160045260246000fd5b6000601f19601f8301169050919050565b610be781610ac6565b8114610bf257600080fd5b50565b610bfe81610ad8565b8114610c0957600080fd5b50565b610c1581610ae4565b8114610c2057600080fd5b50565b610c2c81610b30565b8114610c3757600080fd5b5056fea2646970667358221220a12cdc0845902362a7a8624219e8ee27e13c0403878f89d329c966cecae2b66a64736f6c6343000802003360806040523480156200001157600080fd5b506040518060400160405280600981526020017f52616d616e756a616e00000000000000000000000000000000000000000000008152506040518060400160405280600281526020017f524100000000000000000000000000000000000000000000000000000000000081525081600390805190602001906200009692919062000284565b508060049080519060200190620000af92919062000284565b505050620000f233620000c7620000f860201b60201c565b600a620000d5919062000474565b6301406f40620000e69190620005b1565b6200010160201b60201c565b620006f3565b60006012905090565b600073ffffffffffffffffffffffffffffffffffffffff168273ffffffffffffffffffffffffffffffffffffffff16141562000174576040517f08c379a00000000000000000000000000000000000000000000000000000000081526004016200016b906200036c565b60405180910390fd5b62000188600083836200027a60201b60201c565b80600260008282546200019c9190620003bc565b92505081905550806000808473ffffffffffffffffffffffffffffffffffffffff1673ffffffffffffffffffffffffffffffffffffffff1681526020019081526020016000206000828254620001f39190620003bc565b925050819055508173ffffffffffffffffffffffffffffffffffffffff16600073ffffffffffffffffffffffffffffffffffffffff167fddf252ad1be2c89b69c2b068fc378daa952ba7f163c4a11628f55a4df523b3ef836040516200025a91906200038e565b60405180910390a362000276600083836200027f60201b60201c565b5050565b505050565b505050565b828054620002929062000629565b90600052602060002090601f016020900481019282620002b6576000855562000302565b82601f10620002d157805160ff191683800117855562000302565b8280016001018555821562000302579182015b8281111562000301578251825591602001919060010190620002e4565b5b50905062000311919062000315565b5090565b5b808211156200033057600081600090555060010162000316565b5090565b600062000343601f83620003ab565b91506200035082620006ca565b602082019050919050565b620003668162000612565b82525050565b60006020820190508181036000830152620003878162000334565b9050919050565b6000602082019050620003a560008301846200035b565b92915050565b600082825260208201905092915050565b6000620003c98262000612565b9150620003d68362000612565b9250827fffffffffffffffffffffffffffffffffffffffffffffffffffffffffffffffff038211156200040e576200040d6200065f565b5b828201905092915050565b6000808291508390505b60018511156200046b578086048111156200044357620004426200065f565b5b6001851615620004535780820291505b80810290506200046385620006bd565b945062000423565b94509492505050565b6000620004818262000612565b91506200048e836200061c565b9250620004bd7fffffffffffffffffffffffffffffffffffffffffffffffffffffffffffffffff8484620004c5565b905092915050565b600082620004d75760019050620005aa565b81620004e75760009050620005aa565b81600181146200050057600281146200050b5762000541565b6001915050620005aa565b60ff84111562000520576200051f6200065f565b5b8360020a9150848211156200053a57620005396200065f565b5b50620005aa565b5060208310610133831016604e8410600b84101617156200057b5782820a9050838111156200057557620005746200065f565b5b620005aa565b6200058a848484600162000419565b92509050818404811115620005a457620005a36200065f565b5b81810290505b9392505050565b6000620005be8262000612565b9150620005cb8362000612565b9250817fffffffffffffffffffffffffffffffffffffffffffffffffffffffffffffffff04831182151516156200060757620006066200065f565b5b828202905092915050565b6000819050919050565b600060ff82169050919050565b600060028204905060018216806200064257607f821691505b602082108114156200065957620006586200068e565b5b50919050565b7f4e487b7100000000000000000000000000000000000000000000000000000000600052601160045260246000fd5b7f4e487b7100000000000000000000000000000000000000000000000000000000600052602260045260246000fd5b60008160011c9050919050565b7f45524332303a206d696e7420746f20746865207a65726f206164647265737300600082015250565b61139580620007036000396000f3fe608060405234801561001057600080fd5b50600436106100a95760003560e01c80633950935111610071578063395093511461016857806370a082311461019857806395d89b41146101c8578063a457c2d7146101e6578063a9059cbb14610216578063dd62ed3e14610246576100a9565b806306fdde03146100ae578063095ea7b3146100cc57806318160ddd146100fc57806323b872dd1461011a578063313ce5671461014a575b600080fd5b6100b6610276565b6040516100c39190610e35565b60405180910390f35b6100e660048036038101906100e19190610c83565b610308565b6040516100f39190610e1a565b60405180910390f35b610104610326565b6040516101119190610f37565b60405180910390f35b610134600480360381019061012f9190610c34565b610330565b6040516101419190610e1a565b60405180910390f35b610152610428565b60405161015f9190610f52565b60405180910390f35b610182600480360381019061017d9190610c83565b610431565b60405161018f9190610e1a565b60405180910390f35b6101b260048036038101906101ad9190610bcf565b6104dd565b6040516101bf9190610f37565b60405180910390f35b6101d0610525565b6040516101dd9190610e35565b60405180910390f35b61020060048036038101906101fb9190610c83565b6105b7565b60405161020d9190610e1a565b60405180910390f35b610230600480360381019061022b9190610c83565b6106a2565b60405161023d9190610e1a565b60405180910390f35b610260600480360381019061025b9190610bf8565b6106c0565b60405161026d9190610f37565b60405180910390f35b60606003805461028590611067565b80601f01602080910402602001604051908101604052809291908181526020018280546102b190611067565b80156102fe5780601f106102d3576101008083540402835291602001916102fe565b820191906000526020600020905b8154815290600101906020018083116102e157829003601f168201915b5050505050905090565b600061031c610315610747565b848461074f565b6001905092915050565b6000600254905090565b600061033d84848461091a565b6000600160008673ffffffffffffffffffffffffffffffffffffffff1673ffffffffffffffffffffffffffffffffffffffff1681526020019081526020016000206000610388610747565b73ffffffffffffffffffffffffffffffffffffffff1673ffffffffffffffffffffffffffffffffffffffff16815260200190815260200160002054905082811015610408576040517f08c379a00000000000000000000000000000000000000000000000000000000081526004016103ff90610eb7565b60405180910390fd5b61041c85610414610747565b85840361074f565b60019150509392505050565b60006012905090565b60006104d361043e610747565b84846001600061044c610747565b73ffffffffffffffffffffffffffffffffffffffff1673ffffffffffffffffffffffffffffffffffffffff16815260200190815260200160002060008873ffffffffffffffffffffffffffffffffffffffff1673ffffffffffffffffffffffffffffffffffffffff168152602001908152602001600020546104ce9190610f89565b61074f565b6001905092915050565b60008060008373ffffffffffffffffffffffffffffffffffffffff1673ffffffffffffffffffffffffffffffffffffffff168152602001908152602001600020549050919050565b60606004805461053490611067565b80601f016020809104026020016040519081016040528092919081815260200182805461056090611067565b80156105ad5780601f10610582576101008083540402835291602001916105ad565b820191906000526020600020905b81548152906001019060200180831161059057829003601f168201915b5050505050905090565b600080600160006105c6610747565b73ffffffffffffffffffffffffffffffffffffffff1673ffffffffffffffffffffffffffffffffffffffff16815260200190815260200160002060008573ffffffffffffffffffffffffffffffffffffffff1673ffffffffffffffffffffffffffffffffffffffff16815260200190815260200160002054905082811015610683576040517f08c379a000000000000000000000000000000000000000000000000000000000815260040161067a90610f17565b60405180910390fd5b61069761068e610747565b8585840361074f565b600191505092915050565b60006106b66106af610747565b848461091a565b6001905092915050565b6000600160008473ffffffffffffffffffffffffffffffffffffffff1673ffffffffffffffffffffffffffffffffffffffff16815260200190815260200160002060008373ffffffffffffffffffffffffffffffffffffffff1673ffffffffffffffffffffffffffffffffffffffff16815260200190815260200160002054905092915050565b600033905090565b600073ffffffffffffffffffffffffffffffffffffffff168373ffffffffffffffffffffffffffffffffffffffff1614156107bf576040517f08c379a00000000000000000000000000000000000000000000000000000000081526004016107b690610ef7565b60405180910390fd5b600073ffffffffffffffffffffffffffffffffffffffff168273ffffffffffffffffffffffffffffffffffffffff16141561082f576040517f08c379a000000000000000000000000000000000000000000000000000000000815260040161082690610e77565b60405180910390fd5b80600160008573ffffffffffffffffffffffffffffffffffffffff1673ffffffffffffffffffffffffffffffffffffffff16815260200190815260200160002060008473ffffffffffffffffffffffffffffffffffffffff1673ffffffffffffffffffffffffffffffffffffffff168152602001908152602001600020819055508173ffffffffffffffffffffffffffffffffffffffff168373ffffffffffffffffffffffffffffffffffffffff167f8c5be1e5ebec7d5bd14f71427d1e84f3dd0314c0f7b2291e5b200ac8c7c3b9258360405161090d9190610f37565b60405180910390a3505050565b600073ffffffffffffffffffffffffffffffffffffffff168373ffffffffffffffffffffffffffffffffffffffff16141561098a576040517f08c379a000000000000000000000000000000000000000000000000000000000815260040161098190610ed7565b60405180910390fd5b600073ffffffffffffffffffffffffffffffffffffffff168273ffffffffffffffffffffffffffffffffffffffff1614156109fa576040517f08c379a00000000000000000000000000000000000000000000000000000000081526004016109f190610e57565b60405180910390fd5b610a05838383610b9b565b60008060008573ffffffffffffffffffffffffffffffffffffffff1673ffffffffffffffffffffffffffffffffffffffff16815260200190815260200160002054905081811015610a8b576040517f08c379a0000000000000000000000000000000000000000000000000000000008152600401610a8290610e97565b60405180910390fd5b8181036000808673ffffffffffffffffffffffffffffffffffffffff1673ffffffffffffffffffffffffffffffffffffffff16815260200190815260200160002081905550816000808573ffffffffffffffffffffffffffffffffffffffff1673ffffffffffffffffffffffffffffffffffffffff1681526020019081526020016000206000828254610b1e9190610f89565b925050819055508273ffffffffffffffffffffffffffffffffffffffff168473ffffffffffffffffffffffffffffffffffffffff167fddf252ad1be2c89b69c2b068fc378daa952ba7f163c4a11628f55a4df523b3ef84604051610b829190610f37565b60405180910390a3610b95848484610ba0565b50505050565b505050565b505050565b600081359050610bb481611331565b92915050565b600081359050610bc981611348565b92915050565b600060208284031215610be157600080fd5b6000610bef84828501610ba5565b91505092915050565b60008060408385031215610c0b57600080fd5b6000610c1985828601610ba5565b9250506020610c2a85828601610ba5565b9150509250929050565b600080600060608486031215610c4957600080fd5b6000610c5786828701610ba5565b9350506020610c6886828701610ba5565b9250506040610c7986828701610bba565b9150509250925092565b60008060408385031215610c9657600080fd5b6000610ca485828601610ba5565b9250506020610cb585828601610bba565b9150509250929050565b610cc881610ff1565b82525050565b6000610cd982610f6d565b610ce38185610f78565b9350610cf3818560208601611034565b610cfc816110f7565b840191505092915050565b6000610d14602383610f78565b9150610d1f82611108565b604082019050919050565b6000610d37602283610f78565b9150610d4282611157565b604082019050919050565b6000610d5a602683610f78565b9150610d65826111a6565b604082019050919050565b6000610d7d602883610f78565b9150610d88826111f5565b604082019050919050565b6000610da0602583610f78565b9150610dab82611244565b604082019050919050565b6000610dc3602483610f78565b9150610dce82611293565b604082019050919050565b6000610de6602583610f78565b9150610df1826112e2565b604082019050919050565b610e058161101d565b82525050565b610e1481611027565b82525050565b6000602082019050610e2f6000830184610cbf565b92915050565b60006020820190508181036000830152610e4f8184610cce565b905092915050565b60006020820190508181036000830152610e7081610d07565b9050919050565b60006020820190508181036000830152610e9081610d2a565b9050919050565b60006020820190508181036000830152610eb081610d4d565b9050919050565b60006020820190508181036000830152610ed081610d70565b9050919050565b60006020820190508181036000830152610ef081610d93565b9050919050565b60006020820190508181036000830152610f1081610db6565b9050919050565b60006020820190508181036000830152610f3081610dd9565b9050919050565b6000602082019050610f4c6000830184610dfc565b92915050565b6000602082019050610f676000830184610e0b565b92915050565b600081519050919050565b600082825260208201905092915050565b6000610f948261101d565b9150610f9f8361101d565b9250827fffffffffffffffffffffffffffffffffffffffffffffffffffffffffffffffff03821115610fd457610fd3611099565b5b828201905092915050565b6000610fea82610ffd565b9050919050565b60008115159050919050565b600073ffffffffffffffffffffffffffffffffffffffff82169050919050565b6000819050919050565b600060ff82169050919050565b60005b83811015611052578082015181840152602081019050611037565b83811115611061576000848401525b50505050565b6000600282049050600182168061107f57607f821691505b60208210811415611093576110926110c8565b5b50919050565b7f4e487b7100000000000000000000000000000000000000000000000000000000600052601160045260246000fd5b7f4e487b7100000000000000000000000000000000000000000000000000000000600052602260045260246000fd5b6000601f19601f8301169050919050565b7f45524332303a207472616e7366657220746f20746865207a65726f206164647260008201527f6573730000000000000000000000000000000000000000000000000000000000602082015250565b7f45524332303a20617070726f766520746f20746865207a65726f20616464726560008201527f7373000000000000000000000000000000000000000000000000000000000000602082015250565b7f45524332303a207472616e7366657220616d6f756e742065786365656473206260008201527f616c616e63650000000000000000000000000000000000000000000000000000602082015250565b7f45524332303a207472616e7366657220616d6f756e742065786365656473206160008201527f6c6c6f77616e6365000000000000000000000000000000000000000000000000602082015250565b7f45524332303a207472616e736665722066726f6d20746865207a65726f20616460008201527f6472657373000000000000000000000000000000000000000000000000000000602082015250565b7f45524332303a20617070726f76652066726f6d20746865207a65726f2061646460008201527f7265737300000000000000000000000000000000000000000000000000000000602082015250565b7f45524332303a2064656372656173656420616c6c6f77616e63652062656c6f7760008201527f207a65726f000000000000000000000000000000000000000000000000000000602082015250565b61133a81610fdf565b811461134557600080fd5b50565b6113518161101d565b811461135c57600080fd5b5056fea2646970667358221220adca8b9a3a0a08ae3a7feb0db6a8281ba548071a49cf3a2d9f536d977cade1bd64736f6c6343000802003360806040523480156200001157600080fd5b506040518060400160405280600681526020017f53616e61796100000000000000000000000000000000000000000000000000008152506040518060400160405280600281526020017f5359000000000000000000000000000000000000000000000000000000000000815250816000908051906020019062000096929190620001a6565b508060019080519060200190620000af929190620001a6565b505050620000d2620000c6620000d860201b60201c565b620000e060201b60201c565b620002bb565b600033905090565b6000600660009054906101000a900473ffffffffffffffffffffffffffffffffffffffff16905081600660006101000a81548173ffffffffffffffffffffffffffffffffffffffff021916908373ffffffffffffffffffffffffffffffffffffffff1602179055508173ffffffffffffffffffffffffffffffffffffffff168173ffffffffffffffffffffffffffffffffffffffff167f8be0079c531659141344cd1fd0a4f28419497f9722a3daafe3b4186f6b6457e060405160405180910390a35050565b828054620001b49062000256565b90600052602060002090601f016020900481019282620001d8576000855562000224565b82601f10620001f357805160ff191683800117855562000224565b8280016001018555821562000224579182015b828111156200022357825182559160200191906001019062000206565b5b50905062000233919062000237565b5090565b5b808211156200025257600081600090555060010162000238565b5090565b600060028204905060018216806200026f57607f821691505b602082108114156200028657620002856200028c565b5b50919050565b7f4e487b7100000000000000000000000000000000000000000000000000000000600052602260045260246000fd5b612b9680620002cb6000396000f3fe608060405234801561001057600080fd5b506004361061010b5760003560e01c806370a08231116100a2578063a22cb46511610071578063a22cb465146102a4578063b88d4fde146102c0578063c87b56dd146102dc578063e985e9c51461030c578063f2fde38b1461033c5761010b565b806370a082311461022e578063715018a61461025e5780638da5cb5b1461026857806395d89b41146102865761010b565b806323b872dd116100de57806323b872dd146101aa57806340d097c3146101c657806342842e0e146101e25780636352211e146101fe5761010b565b806301ffc9a71461011057806306fdde0314610140578063081812fc1461015e578063095ea7b31461018e575b600080fd5b61012a60048036038101906101259190611c9a565b610358565b60405161013791906120a0565b60405180910390f35b61014861043a565b60405161015591906120bb565b60405180910390f35b61017860048036038101906101739190611cec565b6104cc565b6040516101859190612039565b60405180910390f35b6101a860048036038101906101a39190611c5e565b610551565b005b6101c460048036038101906101bf9190611b58565b610669565b005b6101e060048036038101906101db9190611af3565b6106c9565b005b6101fc60048036038101906101f79190611b58565b61076b565b005b61021860048036038101906102139190611cec565b61078b565b6040516102259190612039565b60405180910390f35b61024860048036038101906102439190611af3565b61083d565b60405161025591906122dd565b60405180910390f35b6102666108f5565b005b61027061097d565b60405161027d9190612039565b60405180910390f35b61028e6109a7565b60405161029b91906120bb565b60405180910390f35b6102be60048036038101906102b99190611c22565b610a39565b005b6102da60048036038101906102d59190611ba7565b610a4f565b005b6102f660048036038101906102f19190611cec565b610ab1565b60405161030391906120bb565b60405180910390f35b61032660048036038101906103219190611b1c565b610b58565b60405161033391906120a0565b60405180910390f35b61035660048036038101906103519190611af3565b610bec565b005b60007f80ac58cd000000000000000000000000000000000000000000000000000000007bffffffffffffffffffffffffffffffffffffffffffffffffffffffff1916827bffffffffffffffffffffffffffffffffffffffffffffffffffffffff1916148061042357507f5b5e139f000000000000000000000000000000000000000000000000000000007bffffffffffffffffffffffffffffffffffffffffffffffffffffffff1916827bffffffffffffffffffffffffffffffffffffffffffffffffffffffff1916145b80610433575061043282610ce4565b5b9050919050565b60606000805461044990612502565b80601f016020809104026020016040519081016040528092919081815260200182805461047590612502565b80156104c25780601f10610497576101008083540402835291602001916104c2565b820191906000526020600020905b8154815290600101906020018083116104a557829003601f168201915b5050505050905090565b60006104d782610d4e565b610516576040517f08c379a000000000000000000000000000000000000000000000000000000000815260040161050d9061221d565b60405180910390fd5b6004600083815260200190815260200160002060009054906101000a900473ffffffffffffffffffffffffffffffffffffffff169050919050565b600061055c8261078b565b90508073ffffffffffffffffffffffffffffffffffffffff168373ffffffffffffffffffffffffffffffffffffffff1614156105cd576040517f08c379a00000000000000000000000000000000000000000000000000000000081526004016105c49061229d565b60405180910390fd5b8073ffffffffffffffffffffffffffffffffffffffff166105ec610dba565b73ffffffffffffffffffffffffffffffffffffffff16148061061b575061061a81610615610dba565b610b58565b5b61065a576040517f08c379a00000000000000000000000000000000000000000000000000000000081526004016106519061219d565b60405180910390fd5b6106648383610dc2565b505050565b61067a610674610dba565b82610e7b565b6106b9576040517f08c379a00000000000000000000000000000000000000000000000000000000081526004016106b0906122bd565b60405180910390fd5b6106c4838383610f59565b505050565b6106d1610dba565b73ffffffffffffffffffffffffffffffffffffffff166106ef61097d565b73ffffffffffffffffffffffffffffffffffffffff1614610745576040517f08c379a000000000000000000000000000000000000000000000000000000000815260040161073c9061223d565b60405180910390fd5b600061075160076111b5565b905061075d60076111c3565b61076782826111d9565b5050565b61078683838360405180602001604052806000815250610a4f565b505050565b6000806002600084815260200190815260200160002060009054906101000a900473ffffffffffffffffffffffffffffffffffffffff169050600073ffffffffffffffffffffffffffffffffffffffff168173ffffffffffffffffffffffffffffffffffffffff161415610834576040517f08c379a000000000000000000000000000000000000000000000000000000000815260040161082b906121dd565b60405180910390fd5b80915050919050565b60008073ffffffffffffffffffffffffffffffffffffffff168273ffffffffffffffffffffffffffffffffffffffff1614156108ae576040517f08c379a00000000000000000000000000000000000000000000000000000000081526004016108a5906121bd565b60405180910390fd5b600360008373ffffffffffffffffffffffffffffffffffffffff1673ffffffffffffffffffffffffffffffffffffffff168152602001908152602001600020549050919050565b6108fd610dba565b73ffffffffffffffffffffffffffffffffffffffff1661091b61097d565b73ffffffffffffffffffffffffffffffffffffffff1614610971576040517f08c379a00000000000000000000000000000000000000000000000000000000081526004016109689061223d565b60405180910390fd5b61097b60006111f7565b565b6000600660009054906101000a900473ffffffffffffffffffffffffffffffffffffffff16905090565b6060600180546109b690612502565b80601f01602080910402602001604051908101604052809291908181526020018280546109e290612502565b8015610a2f5780601f10610a0457610100808354040283529160200191610a2f565b820191906000526020600020905b815481529060010190602001808311610a1257829003601f168201915b5050505050905090565b610a4b610a44610dba565b83836112bd565b5050565b610a60610a5a610dba565b83610e7b565b610a9f576040517f08c379a0000000000000000000000000000000000000000000000000000000008152600401610a96906122bd565b60405180910390fd5b610aab8484848461142a565b50505050565b6060610abc82610d4e565b610afb576040517f08c379a0000000000000000000000000000000000000000000000000000000008152600401610af29061227d565b60405180910390fd5b6000610b05611486565b90506000815111610b255760405180602001604052806000815250610b50565b80610b2f8461149d565b604051602001610b40929190612015565b6040516020818303038152906040525b915050919050565b6000600560008473ffffffffffffffffffffffffffffffffffffffff1673ffffffffffffffffffffffffffffffffffffffff16815260200190815260200160002060008373ffffffffffffffffffffffffffffffffffffffff1673ffffffffffffffffffffffffffffffffffffffff16815260200190815260200160002060009054906101000a900460ff16905092915050565b610bf4610dba565b73ffffffffffffffffffffffffffffffffffffffff16610c1261097d565b73ffffffffffffffffffffffffffffffffffffffff1614610c68576040517f08c379a0000000000000000000000000000000000000000000000000000000008152600401610c5f9061223d565b60405180910390fd5b600073ffffffffffffffffffffffffffffffffffffffff168173ffffffffffffffffffffffffffffffffffffffff161415610cd8576040517f08c379a0000000000000000000000000000000000000000000000000000000008152600401610ccf906120fd565b60405180910390fd5b610ce1816111f7565b50565b60007f01ffc9a7000000000000000000000000000000000000000000000000000000007bffffffffffffffffffffffffffffffffffffffffffffffffffffffff1916827bffffffffffffffffffffffffffffffffffffffffffffffffffffffff1916149050919050565b60008073ffffffffffffffffffffffffffffffffffffffff166002600084815260200190815260200160002060009054906101000a900473ffffffffffffffffffffffffffffffffffffffff1673ffffffffffffffffffffffffffffffffffffffff1614159050919050565b600033905090565b816004600083815260200190815260200160002060006101000a81548173ffffffffffffffffffffffffffffffffffffffff021916908373ffffffffffffffffffffffffffffffffffffffff160217905550808273ffffffffffffffffffffffffffffffffffffffff16610e358361078b565b73ffffffffffffffffffffffffffffffffffffffff167f8c5be1e5ebec7d5bd14f71427d1e84f3dd0314c0f7b2291e5b200ac8c7c3b92560405160405180910390a45050565b6000610e8682610d4e565b610ec5576040517f08c379a0000000000000000000000000000000000000000000000000000000008152600401610ebc9061217d565b60405180910390fd5b6000610ed08361078b565b90508073ffffffffffffffffffffffffffffffffffffffff168473ffffffffffffffffffffffffffffffffffffffff161480610f3f57508373ffffffffffffffffffffffffffffffffffffffff16610f27846104cc565b73ffffffffffffffffffffffffffffffffffffffff16145b80610f505750610f4f8185610b58565b5b91505092915050565b8273ffffffffffffffffffffffffffffffffffffffff16610f798261078b565b73ffffffffffffffffffffffffffffffffffffffff1614610fcf576040517f08c379a0000000000000000000000000000000000000000000000000000000008152600401610fc69061225d565b60405180910390fd5b600073ffffffffffffffffffffffffffffffffffffffff168273ffffffffffffffffffffffffffffffffffffffff16141561103f576040517f08c379a00000000000000000000000000000000000000000000000000000000081526004016110369061213d565b60405180910390fd5b61104a83838361164a565b611055600082610dc2565b6001600360008573ffffffffffffffffffffffffffffffffffffffff1673ffffffffffffffffffffffffffffffffffffffff16815260200190815260200160002060008282546110a59190612418565b925050819055506001600360008473ffffffffffffffffffffffffffffffffffffffff1673ffffffffffffffffffffffffffffffffffffffff16815260200190815260200160002060008282546110fc9190612391565b92505081905550816002600083815260200190815260200160002060006101000a81548173ffffffffffffffffffffffffffffffffffffffff021916908373ffffffffffffffffffffffffffffffffffffffff160217905550808273ffffffffffffffffffffffffffffffffffffffff168473ffffffffffffffffffffffffffffffffffffffff167fddf252ad1be2c89b69c2b068fc378daa952ba7f163c4a11628f55a4df523b3ef60405160405180910390a4505050565b600081600001549050919050565b6001816000016000828254019250508190555050565b6111f382826040518060200160405280600081525061164f565b5050565b6000600660009054906101000a900473ffffffffffffffffffffffffffffffffffffffff16905081600660006101000a81548173ffffffffffffffffffffffffffffffffffffffff021916908373ffffffffffffffffffffffffffffffffffffffff1602179055508173ffffffffffffffffffffffffffffffffffffffff168173ffffffffffffffffffffffffffffffffffffffff167f8be0079c531659141344cd1fd0a4f28419497f9722a3daafe3b4186f6b6457e060405160405180910390a35050565b8173ffffffffffffffffffffffffffffffffffffffff168373ffffffffffffffffffffffffffffffffffffffff16141561132c576040517f08c379a00000000000000000000000000000000000000000000000000000000081526004016113239061215d565b60405180910390fd5b80600560008573ffffffffffffffffffffffffffffffffffffffff1673ffffffffffffffffffffffffffffffffffffffff16815260200190815260200160002060008473ffffffffffffffffffffffffffffffffffffffff1673ffffffffffffffffffffffffffffffffffffffff16815260200190815260200160002060006101000a81548160ff0219169083151502179055508173ffffffffffffffffffffffffffffffffffffffff168373ffffffffffffffffffffffffffffffffffffffff167f17307eab39ab6107e8899845ad3d59bd9653f200f220920489ca2b5937696c318360405161141d91906120a0565b60405180910390a3505050565b611435848484610f59565b611441848484846116aa565b611480576040517f08c379a0000000000000000000000000000000000000000000000000000000008152600401611477906120dd565b60405180910390fd5b50505050565b606060405180602001604052806000815250905090565b606060008214156114e5576040518060400160405280600181526020017f30000000000000000000000000000000000000000000000000000000000000008152509050611645565b600082905060005b6000821461151757808061150090612565565b915050600a8261151091906123e7565b91506114ed565b60008167ffffffffffffffff811115611559577f4e487b7100000000000000000000000000000000000000000000000000000000600052604160045260246000fd5b6040519080825280601f01601f19166020018201604052801561158b5781602001600182028036833780820191505090505b5090505b6000851461163e576001826115a49190612418565b9150600a856115b391906125ae565b60306115bf9190612391565b60f81b8183815181106115fb577f4e487b7100000000000000000000000000000000000000000000000000000000600052603260045260246000fd5b60200101907effffffffffffffffffffffffffffffffffffffffffffffffffffffffffffff1916908160001a905350600a8561163791906123e7565b945061158f565b8093505050505b919050565b505050565b6116598383611841565b61166660008484846116aa565b6116a5576040517f08c379a000000000000000000000000000000000000000000000000000000000815260040161169c906120dd565b60405180910390fd5b505050565b60006116cb8473ffffffffffffffffffffffffffffffffffffffff16611a0f565b15611834578373ffffffffffffffffffffffffffffffffffffffff1663150b7a026116f4610dba565b8786866040518563ffffffff1660e01b81526004016117169493929190612054565b602060405180830381600087803b15801561173057600080fd5b505af192505050801561176157506040513d601f19601f8201168201806040525081019061175e9190611cc3565b60015b6117e4573d8060008114611791576040519150601f19603f3d011682016040523d82523d6000602084013e611796565b606091505b506000815114156117dc576040517f08c379a00000000000000000000000000000000000000000000000000000000081526004016117d3906120dd565b60405180910390fd5b805181602001fd5b63150b7a0260e01b7bffffffffffffffffffffffffffffffffffffffffffffffffffffffff1916817bffffffffffffffffffffffffffffffffffffffffffffffffffffffff191614915050611839565b600190505b949350505050565b600073ffffffffffffffffffffffffffffffffffffffff168273ffffffffffffffffffffffffffffffffffffffff1614156118b1576040517f08c379a00000000000000000000000000000000000000000000000000000000081526004016118a8906121fd565b60405180910390fd5b6118ba81610d4e565b156118fa576040517f08c379a00000000000000000000000000000000000000000000000000000000081526004016118f19061211d565b60405180910390fd5b6119066000838361164a565b6001600360008473ffffffffffffffffffffffffffffffffffffffff1673ffffffffffffffffffffffffffffffffffffffff16815260200190815260200160002060008282546119569190612391565b92505081905550816002600083815260200190815260200160002060006101000a81548173ffffffffffffffffffffffffffffffffffffffff021916908373ffffffffffffffffffffffffffffffffffffffff160217905550808273ffffffffffffffffffffffffffffffffffffffff16600073ffffffffffffffffffffffffffffffffffffffff167fddf252ad1be2c89b69c2b068fc378daa952ba7f163c4a11628f55a4df523b3ef60405160405180910390a45050565b600080823b905060008111915050919050565b6000611a35611a308461231d565b6122f8565b905082815260208101848484011115611a4d57600080fd5b611a588482856124c0565b509392505050565b600081359050611a6f81612b04565b92915050565b600081359050611a8481612b1b565b92915050565b600081359050611a9981612b32565b92915050565b600081519050611aae81612b32565b92915050565b600082601f830112611ac557600080fd5b8135611ad5848260208601611a22565b91505092915050565b600081359050611aed81612b49565b92915050565b600060208284031215611b0557600080fd5b6000611b1384828501611a60565b91505092915050565b60008060408385031215611b2f57600080fd5b6000611b3d85828601611a60565b9250506020611b4e85828601611a60565b9150509250929050565b600080600060608486031215611b6d57600080fd5b6000611b7b86828701611a60565b9350506020611b8c86828701611a60565b9250506040611b9d86828701611ade565b9150509250925092565b60008060008060808587031215611bbd57600080fd5b6000611bcb87828801611a60565b9450506020611bdc87828801611a60565b9350506040611bed87828801611ade565b925050606085013567ffffffffffffffff811115611c0a57600080fd5b611c1687828801611ab4565b91505092959194509250565b60008060408385031215611c3557600080fd5b6000611c4385828601611a60565b9250506020611c5485828601611a75565b9150509250929050565b60008060408385031215611c7157600080fd5b6000611c7f85828601611a60565b9250506020611c9085828601611ade565b9150509250929050565b600060208284031215611cac57600080fd5b6000611cba84828501611a8a565b91505092915050565b600060208284031215611cd557600080fd5b6000611ce384828501611a9f565b91505092915050565b600060208284031215611cfe57600080fd5b6000611d0c84828501611ade565b91505092915050565b611d1e8161244c565b82525050565b611d2d8161245e565b82525050565b6000611d3e8261234e565b611d488185612364565b9350611d588185602086016124cf565b611d618161269b565b840191505092915050565b6000611d7782612359565b611d818185612375565b9350611d918185602086016124cf565b611d9a8161269b565b840191505092915050565b6000611db082612359565b611dba8185612386565b9350611dca8185602086016124cf565b80840191505092915050565b6000611de3603283612375565b9150611dee826126ac565b604082019050919050565b6000611e06602683612375565b9150611e11826126fb565b604082019050919050565b6000611e29601c83612375565b9150611e348261274a565b602082019050919050565b6000611e4c602483612375565b9150611e5782612773565b604082019050919050565b6000611e6f601983612375565b9150611e7a826127c2565b602082019050919050565b6000611e92602c83612375565b9150611e9d826127eb565b604082019050919050565b6000611eb5603883612375565b9150611ec08261283a565b604082019050919050565b6000611ed8602a83612375565b9150611ee382612889565b604082019050919050565b6000611efb602983612375565b9150611f06826128d8565b604082019050919050565b6000611f1e602083612375565b9150611f2982612927565b602082019050919050565b6000611f41602c83612375565b9150611f4c82612950565b604082019050919050565b6000611f64602083612375565b9150611f6f8261299f565b602082019050919050565b6000611f87602983612375565b9150611f92826129c8565b604082019050919050565b6000611faa602f83612375565b9150611fb582612a17565b604082019050919050565b6000611fcd602183612375565b9150611fd882612a66565b604082019050919050565b6000611ff0603183612375565b9150611ffb82612ab5565b604082019050919050565b61200f816124b6565b82525050565b60006120218285611da5565b915061202d8284611da5565b91508190509392505050565b600060208201905061204e6000830184611d15565b92915050565b60006080820190506120696000830187611d15565b6120766020830186611d15565b6120836040830185612006565b81810360608301526120958184611d33565b905095945050505050565b60006020820190506120b56000830184611d24565b92915050565b600060208201905081810360008301526120d58184611d6c565b905092915050565b600060208201905081810360008301526120f681611dd6565b9050919050565b6000602082019050818103600083015261211681611df9565b9050919050565b6000602082019050818103600083015261213681611e1c565b9050919050565b6000602082019050818103600083015261215681611e3f565b9050919050565b6000602082019050818103600083015261217681611e62565b9050919050565b6000602082019050818103600083015261219681611e85565b9050919050565b600060208201905081810360008301526121b681611ea8565b9050919050565b600060208201905081810360008301526121d681611ecb565b9050919050565b600060208201905081810360008301526121f681611eee565b9050919050565b6000602082019050818103600083015261221681611f11565b9050919050565b6000602082019050818103600083015261223681611f34565b9050919050565b6000602082019050818103600083015261225681611f57565b9050919050565b6000602082019050818103600083015261227681611f7a565b9050919050565b6000602082019050818103600083015261229681611f9d565b9050919050565b600060208201905081810360008301526122b681611fc0565b9050919050565b600060208201905081810360008301526122d681611fe3565b9050919050565b60006020820190506122f26000830184612006565b92915050565b6000612302612313565b905061230e8282612534565b919050565b6000604051905090565b600067ffffffffffffffff8211156123385761233761266c565b5b6123418261269b565b9050602081019050919050565b600081519050919050565b600081519050919050565b600082825260208201905092915050565b600082825260208201905092915050565b600081905092915050565b600061239c826124b6565b91506123a7836124b6565b9250827fffffffffffffffffffffffffffffffffffffffffffffffffffffffffffffffff038211156123dc576123db6125df565b5b828201905092915050565b60006123f2826124b6565b91506123fd836124b6565b92508261240d5761240c61260e565b5b828204905092915050565b6000612423826124b6565b915061242e836124b6565b925082821015612441576124406125df565b5b828203905092915050565b600061245782612496565b9050919050565b60008115159050919050565b60007fffffffff0000000000000000000000000000000000000000000000000000000082169050919050565b600073ffffffffffffffffffffffffffffffffffffffff82169050919050565b6000819050919050565b82818337600083830152505050565b60005b838110156124ed5780820151818401526020810190506124d2565b838111156124fc576000848401525b50505050565b6000600282049050600182168061251a57607f821691505b6020821081141561252e5761252d61263d565b5b50919050565b61253d8261269b565b810181811067ffffffffffffffff8211171561255c5761255b61266c565b5b80604052505050565b6000612570826124b6565b91507fffffffffffffffffffffffffffffffffffffffffffffffffffffffffffffffff8214156125a3576125a26125df565b5b600182019050919050565b60006125b9826124b6565b91506125c4836124b6565b9250826125d4576125d361260e565b5b828206905092915050565b7f4e487b7100000000000000000000000000000000000000000000000000000000600052601160045260246000fd5b7f4e487b7100000000000000000000000000000000000000000000000000000000600052601260045260246000fd5b7f4e487b7100000000000000000000000000000000000000000000000000000000600052602260045260246000fd5b7f4e487b7100000000000000000000000000000000000000000000000000000000600052604160045260246000fd5b6000601f19601f8301169050919050565b7f4552433732313a207472616e7366657220746f206e6f6e20455243373231526560008201527f63656976657220696d706c656d656e7465720000000000000000000000000000602082015250565b7f4f776e61626c653a206e6577206f776e657220697320746865207a65726f206160008201527f6464726573730000000000000000000000000000000000000000000000000000602082015250565b7f4552433732313a20746f6b656e20616c7265616479206d696e74656400000000600082015250565b7f4552433732313a207472616e7366657220746f20746865207a65726f2061646460008201527f7265737300000000000000000000000000000000000000000000000000000000602082015250565b7f4552433732313a20617070726f766520746f2063616c6c657200000000000000600082015250565b7f4552433732313a206f70657261746f7220717565727920666f72206e6f6e657860008201527f697374656e7420746f6b656e0000000000000000000000000000000000000000602082015250565b7f4552433732313a20617070726f76652063616c6c6572206973206e6f74206f7760008201527f6e6572206e6f7220617070726f76656420666f7220616c6c0000000000000000602082015250565b7f4552433732313a2062616c616e636520717565727920666f7220746865207a6560008201527f726f206164647265737300000000000000000000000000000000000000000000602082015250565b7f4552433732313a206f776e657220717565727920666f72206e6f6e657869737460008201527f656e7420746f6b656e0000000000000000000000000000000000000000000000602082015250565b7f4552433732313a206d696e7420746f20746865207a65726f2061646472657373600082015250565b7f4552433732313a20617070726f76656420717565727920666f72206e6f6e657860008201527f697374656e7420746f6b656e0000000000000000000000000000000000000000602082015250565b7f4f776e61626c653a2063616c6c6572206973206e6f7420746865206f776e6572600082015250565b7f4552433732313a207472616e73666572206f6620746f6b656e2074686174206960008201527f73206e6f74206f776e0000000000000000000000000000000000000000000000602082015250565b7f4552433732314d657461646174613a2055524920717565727920666f72206e6f60008201527f6e6578697374656e7420746f6b656e0000000000000000000000000000000000602082015250565b7f4552433732313a20617070726f76616c20746f2063757272656e74206f776e6560008201527f7200000000000000000000000000000000000000000000000000000000000000602082015250565b7f4552433732313a207472616e736665722063616c6c6572206973206e6f74206f60008201527f776e6572206e6f7220617070726f766564000000000000000000000000000000602082015250565b612b0d8161244c565b8114612b1857600080fd5b50565b612b248161245e565b8114612b2f57600080fd5b50565b612b3b8161246a565b8114612b4657600080fd5b50565b612b52816124b6565b8114612b5d57600080fd5b5056fea2646970667358221220ec272c057e45b9a952723025c5ea34346334ff314bd9aea0a9542ee59393620264736f6c6343000802003360806040523480156200001157600080fd5b506040518060200160405280600081525062000033816200005a60201b60201c565b5062000054620000486200007660201b60201c565b6200007e60201b60201c565b62000259565b80600290805190602001906200007292919062000144565b5050565b600033905090565b6000600360009054906101000a900473ffffffffffffffffffffffffffffffffffffffff16905081600360006101000a81548173ffffffffffffffffffffffffffffffffffffffff021916908373ffffffffffffffffffffffffffffffffffffffff1602179055508173ffffffffffffffffffffffffffffffffffffffff168173ffffffffffffffffffffffffffffffffffffffff167f8be0079c531659141344cd1fd0a4f28419497f9722a3daafe3b4186f6b6457e060405160405180910390a35050565b8280546200015290620001f4565b90600052602060002090601f016020900481019282620001765760008555620001c2565b82601f106200019157805160ff1916838001178555620001c2565b82800160010185558215620001c2579182015b82811115620001c1578251825591602001919060010190620001a4565b5b509050620001d19190620001d5565b5090565b5b80821115620001f0576000816000905550600101620001d6565b5090565b600060028204905060018216806200020d57607f821691505b602082108114156200022457620002236200022a565b5b50919050565b7f4e487b7100000000000000000000000000000000000000000000000000000000600052602260045260246000fd5b612ffc80620002696000396000f3fe608060405234801561001057600080fd5b50600436106100ce5760003560e01c80634e1273f41161008c578063a22cb46511610066578063a22cb4651461020f578063e985e9c51461022b578063f242432a1461025b578063f2fde38b14610277576100ce565b80634e1273f4146101b7578063715018a6146101e75780638da5cb5b146101f1576100ce565b8062fdd58e146100d357806301ffc9a71461010357806302fe5305146101335780630e89341c1461014f5780632eb2c2d61461017f57806340c10f191461019b575b600080fd5b6100ed60048036038101906100e89190611f7c565b610293565b6040516100fa91906126de565b60405180910390f35b61011d60048036038101906101189190612024565b61035c565b60405161012a9190612501565b60405180910390f35b61014d60048036038101906101489190612076565b61043e565b005b610169600480360381019061016491906120b7565b6104c6565b604051610176919061251c565b60405180910390f35b61019960048036038101906101949190611df2565b61055a565b005b6101b560048036038101906101b09190611f7c565b6105fb565b005b6101d160048036038101906101cc9190611fb8565b6106d5565b6040516101de91906124a8565b60405180910390f35b6101ef610886565b005b6101f961090e565b60405161020691906123cb565b60405180910390f35b61022960048036038101906102249190611f40565b610938565b005b61024560048036038101906102409190611db6565b61094e565b6040516102529190612501565b60405180910390f35b61027560048036038101906102709190611eb1565b6109e2565b005b610291600480360381019061028c9190611d8d565b610a83565b005b60008073ffffffffffffffffffffffffffffffffffffffff168373ffffffffffffffffffffffffffffffffffffffff161415610304576040517f08c379a00000000000000000000000000000000000000000000000000000000081526004016102fb9061257e565b60405180910390fd5b60008083815260200190815260200160002060008473ffffffffffffffffffffffffffffffffffffffff1673ffffffffffffffffffffffffffffffffffffffff16815260200190815260200160002054905092915050565b60007fd9b67a26000000000000000000000000000000000000000000000000000000007bffffffffffffffffffffffffffffffffffffffffffffffffffffffff1916827bffffffffffffffffffffffffffffffffffffffffffffffffffffffff1916148061042757507f0e89341c000000000000000000000000000000000000000000000000000000007bffffffffffffffffffffffffffffffffffffffffffffffffffffffff1916827bffffffffffffffffffffffffffffffffffffffffffffffffffffffff1916145b80610437575061043682610b7b565b5b9050919050565b610446610be5565b73ffffffffffffffffffffffffffffffffffffffff1661046461090e565b73ffffffffffffffffffffffffffffffffffffffff16146104ba576040517f08c379a00000000000000000000000000000000000000000000000000000000081526004016104b19061263e565b60405180910390fd5b6104c381610bed565b50565b6060600280546104d59061297e565b80601f01602080910402602001604051908101604052809291908181526020018280546105019061297e565b801561054e5780601f106105235761010080835404028352916020019161054e565b820191906000526020600020905b81548152906001019060200180831161053157829003601f168201915b50505050509050919050565b610562610be5565b73ffffffffffffffffffffffffffffffffffffffff168573ffffffffffffffffffffffffffffffffffffffff1614806105a857506105a7856105a2610be5565b61094e565b5b6105e7576040517f08c379a00000000000000000000000000000000000000000000000000000000081526004016105de906125fe565b60405180910390fd5b6105f48585858585610c07565b5050505050565b610603610be5565b73ffffffffffffffffffffffffffffffffffffffff1661062161090e565b73ffffffffffffffffffffffffffffffffffffffff1614610677576040517f08c379a000000000000000000000000000000000000000000000000000000000815260040161066e9061263e565b60405180910390fd5b60006106836004610f67565b905061068f6004610f75565b6106d08382846040518060400160405280600281526020017f3078000000000000000000000000000000000000000000000000000000000000815250610f8b565b505050565b6060815183511461071b576040517f08c379a00000000000000000000000000000000000000000000000000000000081526004016107129061267e565b60405180910390fd5b6000835167ffffffffffffffff81111561075e577f4e487b7100000000000000000000000000000000000000000000000000000000600052604160045260246000fd5b60405190808252806020026020018201604052801561078c5781602001602082028036833780820191505090505b50905060005b845181101561087b576108258582815181106107d7577f4e487b7100000000000000000000000000000000000000000000000000000000600052603260045260246000fd5b6020026020010151858381518110610818577f4e487b7100000000000000000000000000000000000000000000000000000000600052603260045260246000fd5b6020026020010151610293565b82828151811061085e577f4e487b7100000000000000000000000000000000000000000000000000000000600052603260045260246000fd5b60200260200101818152505080610874906129e1565b9050610792565b508091505092915050565b61088e610be5565b73ffffffffffffffffffffffffffffffffffffffff166108ac61090e565b73ffffffffffffffffffffffffffffffffffffffff1614610902576040517f08c379a00000000000000000000000000000000000000000000000000000000081526004016108f99061263e565b60405180910390fd5b61090c6000611121565b565b6000600360009054906101000a900473ffffffffffffffffffffffffffffffffffffffff16905090565b61094a610943610be5565b83836111e7565b5050565b6000600160008473ffffffffffffffffffffffffffffffffffffffff1673ffffffffffffffffffffffffffffffffffffffff16815260200190815260200160002060008373ffffffffffffffffffffffffffffffffffffffff1673ffffffffffffffffffffffffffffffffffffffff16815260200190815260200160002060009054906101000a900460ff16905092915050565b6109ea610be5565b73ffffffffffffffffffffffffffffffffffffffff168573ffffffffffffffffffffffffffffffffffffffff161480610a305750610a2f85610a2a610be5565b61094e565b5b610a6f576040517f08c379a0000000000000000000000000000000000000000000000000000000008152600401610a66906125be565b60405180910390fd5b610a7c8585858585611354565b5050505050565b610a8b610be5565b73ffffffffffffffffffffffffffffffffffffffff16610aa961090e565b73ffffffffffffffffffffffffffffffffffffffff1614610aff576040517f08c379a0000000000000000000000000000000000000000000000000000000008152600401610af69061263e565b60405180910390fd5b600073ffffffffffffffffffffffffffffffffffffffff168173ffffffffffffffffffffffffffffffffffffffff161415610b6f576040517f08c379a0000000000000000000000000000000000000000000000000000000008152600401610b669061259e565b60405180910390fd5b610b7881611121565b50565b60007f01ffc9a7000000000000000000000000000000000000000000000000000000007bffffffffffffffffffffffffffffffffffffffffffffffffffffffff1916827bffffffffffffffffffffffffffffffffffffffffffffffffffffffff1916149050919050565b600033905090565b8060029080519060200190610c03929190611a85565b5050565b8151835114610c4b576040517f08c379a0000000000000000000000000000000000000000000000000000000008152600401610c429061269e565b60405180910390fd5b600073ffffffffffffffffffffffffffffffffffffffff168473ffffffffffffffffffffffffffffffffffffffff161415610cbb576040517f08c379a0000000000000000000000000000000000000000000000000000000008152600401610cb2906125de565b60405180910390fd5b6000610cc5610be5565b9050610cd58187878787876115d6565b60005b8451811015610ed2576000858281518110610d1c577f4e487b7100000000000000000000000000000000000000000000000000000000600052603260045260246000fd5b602002602001015190506000858381518110610d61577f4e487b7100000000000000000000000000000000000000000000000000000000600052603260045260246000fd5b60200260200101519050600080600084815260200190815260200160002060008b73ffffffffffffffffffffffffffffffffffffffff1673ffffffffffffffffffffffffffffffffffffffff16815260200190815260200160002054905081811015610e02576040517f08c379a0000000000000000000000000000000000000000000000000000000008152600401610df99061261e565b60405180910390fd5b81810360008085815260200190815260200160002060008c73ffffffffffffffffffffffffffffffffffffffff1673ffffffffffffffffffffffffffffffffffffffff168152602001908152602001600020819055508160008085815260200190815260200160002060008b73ffffffffffffffffffffffffffffffffffffffff1673ffffffffffffffffffffffffffffffffffffffff1681526020019081526020016000206000828254610eb79190612872565b9250508190555050505080610ecb906129e1565b9050610cd8565b508473ffffffffffffffffffffffffffffffffffffffff168673ffffffffffffffffffffffffffffffffffffffff168273ffffffffffffffffffffffffffffffffffffffff167f4a39dc06d4c0dbc64b70af90fd698a233a518aa5d07e595d983b8c0526c8f7fb8787604051610f499291906124ca565b60405180910390a4610f5f8187878787876115de565b505050505050565b600081600001549050919050565b6001816000016000828254019250508190555050565b600073ffffffffffffffffffffffffffffffffffffffff168473ffffffffffffffffffffffffffffffffffffffff161415610ffb576040517f08c379a0000000000000000000000000000000000000000000000000000000008152600401610ff2906126be565b60405180910390fd5b6000611005610be5565b905061102681600087611017886117c5565b611020886117c5565b876115d6565b8260008086815260200190815260200160002060008773ffffffffffffffffffffffffffffffffffffffff1673ffffffffffffffffffffffffffffffffffffffff16815260200190815260200160002060008282546110859190612872565b925050819055508473ffffffffffffffffffffffffffffffffffffffff16600073ffffffffffffffffffffffffffffffffffffffff168273ffffffffffffffffffffffffffffffffffffffff167fc3d58168c5ae7397731d063d5bbf3d657854427343f4c083240f7aacaa2d0f6287876040516111039291906126f9565b60405180910390a461111a8160008787878761188b565b5050505050565b6000600360009054906101000a900473ffffffffffffffffffffffffffffffffffffffff16905081600360006101000a81548173ffffffffffffffffffffffffffffffffffffffff021916908373ffffffffffffffffffffffffffffffffffffffff1602179055508173ffffffffffffffffffffffffffffffffffffffff168173ffffffffffffffffffffffffffffffffffffffff167f8be0079c531659141344cd1fd0a4f28419497f9722a3daafe3b4186f6b6457e060405160405180910390a35050565b8173ffffffffffffffffffffffffffffffffffffffff168373ffffffffffffffffffffffffffffffffffffffff161415611256576040517f08c379a000000000000000000000000000000000000000000000000000000000815260040161124d9061265e565b60405180910390fd5b80600160008573ffffffffffffffffffffffffffffffffffffffff1673ffffffffffffffffffffffffffffffffffffffff16815260200190815260200160002060008473ffffffffffffffffffffffffffffffffffffffff1673ffffffffffffffffffffffffffffffffffffffff16815260200190815260200160002060006101000a81548160ff0219169083151502179055508173ffffffffffffffffffffffffffffffffffffffff168373ffffffffffffffffffffffffffffffffffffffff167f17307eab39ab6107e8899845ad3d59bd9653f200f220920489ca2b5937696c31836040516113479190612501565b60405180910390a3505050565b600073ffffffffffffffffffffffffffffffffffffffff168473ffffffffffffffffffffffffffffffffffffffff1614156113c4576040517f08c379a00000000000000000000000000000000000000000000000000000000081526004016113bb906125de565b60405180910390fd5b60006113ce610be5565b90506113ee8187876113df886117c5565b6113e8886117c5565b876115d6565b600080600086815260200190815260200160002060008873ffffffffffffffffffffffffffffffffffffffff1673ffffffffffffffffffffffffffffffffffffffff16815260200190815260200160002054905083811015611485576040517f08c379a000000000000000000000000000000000000000000000000000000000815260040161147c9061261e565b60405180910390fd5b83810360008087815260200190815260200160002060008973ffffffffffffffffffffffffffffffffffffffff1673ffffffffffffffffffffffffffffffffffffffff168152602001908152602001600020819055508360008087815260200190815260200160002060008873ffffffffffffffffffffffffffffffffffffffff1673ffffffffffffffffffffffffffffffffffffffff168152602001908152602001600020600082825461153a9190612872565b925050819055508573ffffffffffffffffffffffffffffffffffffffff168773ffffffffffffffffffffffffffffffffffffffff168373ffffffffffffffffffffffffffffffffffffffff167fc3d58168c5ae7397731d063d5bbf3d657854427343f4c083240f7aacaa2d0f6288886040516115b79291906126f9565b60405180910390a46115cd82888888888861188b565b50505050505050565b505050505050565b6115fd8473ffffffffffffffffffffffffffffffffffffffff16611a72565b156117bd578373ffffffffffffffffffffffffffffffffffffffff1663bc197c8187878686866040518663ffffffff1660e01b81526004016116439594939291906123e6565b602060405180830381600087803b15801561165d57600080fd5b505af192505050801561168e57506040513d601f19601f8201168201806040525081019061168b919061204d565b60015b6117345761169a612ab7565b806308c379a014156116f757506116af612ed4565b806116ba57506116f9565b806040517f08c379a00000000000000000000000000000000000000000000000000000000081526004016116ee919061251c565b60405180910390fd5b505b6040517f08c379a000000000000000000000000000000000000000000000000000000000815260040161172b9061253e565b60405180910390fd5b63bc197c8160e01b7bffffffffffffffffffffffffffffffffffffffffffffffffffffffff1916817bffffffffffffffffffffffffffffffffffffffffffffffffffffffff1916146117bb576040517f08c379a00000000000000000000000000000000000000000000000000000000081526004016117b29061255e565b60405180910390fd5b505b505050505050565b60606000600167ffffffffffffffff81111561180a577f4e487b7100000000000000000000000000000000000000000000000000000000600052604160045260246000fd5b6040519080825280602002602001820160405280156118385781602001602082028036833780820191505090505b5090508281600081518110611876577f4e487b7100000000000000000000000000000000000000000000000000000000600052603260045260246000fd5b60200260200101818152505080915050919050565b6118aa8473ffffffffffffffffffffffffffffffffffffffff16611a72565b15611a6a578373ffffffffffffffffffffffffffffffffffffffff1663f23a6e6187878686866040518663ffffffff1660e01b81526004016118f095949392919061244e565b602060405180830381600087803b15801561190a57600080fd5b505af192505050801561193b57506040513d601f19601f82011682018060405250810190611938919061204d565b60015b6119e157611947612ab7565b806308c379a014156119a4575061195c612ed4565b8061196757506119a6565b806040517f08c379a000000000000000000000000000000000000000000000000000000000815260040161199b919061251c565b60405180910390fd5b505b6040517f08c379a00000000000000000000000000000000000000000000000000000000081526004016119d89061253e565b60405180910390fd5b63f23a6e6160e01b7bffffffffffffffffffffffffffffffffffffffffffffffffffffffff1916817bffffffffffffffffffffffffffffffffffffffffffffffffffffffff191614611a68576040517f08c379a0000000000000000000000000000000000000000000000000000000008152600401611a5f9061255e565b60405180910390fd5b505b505050505050565b600080823b905060008111915050919050565b828054611a919061297e565b90600052602060002090601f016020900481019282611ab35760008555611afa565b82601f10611acc57805160ff1916838001178555611afa565b82800160010185558215611afa579182015b82811115611af9578251825591602001919060010190611ade565b5b509050611b079190611b0b565b5090565b5b80821115611b24576000816000905550600101611b0c565b5090565b6000611b3b611b3684612747565b612722565b90508083825260208201905082856020860282011115611b5a57600080fd5b60005b85811015611b8a5781611b708882611c7c565b845260208401935060208301925050600181019050611b5d565b5050509392505050565b6000611ba7611ba284612773565b612722565b90508083825260208201905082856020860282011115611bc657600080fd5b60005b85811015611bf65781611bdc8882611d78565b845260208401935060208301925050600181019050611bc9565b5050509392505050565b6000611c13611c0e8461279f565b612722565b905082815260208101848484011115611c2b57600080fd5b611c3684828561293c565b509392505050565b6000611c51611c4c846127d0565b612722565b905082815260208101848484011115611c6957600080fd5b611c7484828561293c565b509392505050565b600081359050611c8b81612f6a565b92915050565b600082601f830112611ca257600080fd5b8135611cb2848260208601611b28565b91505092915050565b600082601f830112611ccc57600080fd5b8135611cdc848260208601611b94565b91505092915050565b600081359050611cf481612f81565b92915050565b600081359050611d0981612f98565b92915050565b600081519050611d1e81612f98565b92915050565b600082601f830112611d3557600080fd5b8135611d45848260208601611c00565b91505092915050565b600082601f830112611d5f57600080fd5b8135611d6f848260208601611c3e565b91505092915050565b600081359050611d8781612faf565b92915050565b600060208284031215611d9f57600080fd5b6000611dad84828501611c7c565b91505092915050565b60008060408385031215611dc957600080fd5b6000611dd785828601611c7c565b9250506020611de885828601611c7c565b9150509250929050565b600080600080600060a08688031215611e0a57600080fd5b6000611e1888828901611c7c565b9550506020611e2988828901611c7c565b945050604086013567ffffffffffffffff811115611e4657600080fd5b611e5288828901611cbb565b935050606086013567ffffffffffffffff811115611e6f57600080fd5b611e7b88828901611cbb565b925050608086013567ffffffffffffffff811115611e9857600080fd5b611ea488828901611d24565b9150509295509295909350565b600080600080600060a08688031215611ec957600080fd5b6000611ed788828901611c7c565b9550506020611ee888828901611c7c565b9450506040611ef988828901611d78565b9350506060611f0a88828901611d78565b925050608086013567ffffffffffffffff811115611f2757600080fd5b611f3388828901611d24565b9150509295509295909350565b60008060408385031215611f5357600080fd5b6000611f6185828601611c7c565b9250506020611f7285828601611ce5565b9150509250929050565b60008060408385031215611f8f57600080fd5b6000611f9d85828601611c7c565b9250506020611fae85828601611d78565b9150509250929050565b60008060408385031215611fcb57600080fd5b600083013567ffffffffffffffff811115611fe557600080fd5b611ff185828601611c91565b925050602083013567ffffffffffffffff81111561200e57600080fd5b61201a85828601611cbb565b9150509250929050565b60006020828403121561203657600080fd5b600061204484828501611cfa565b91505092915050565b60006020828403121561205f57600080fd5b600061206d84828501611d0f565b91505092915050565b60006020828403121561208857600080fd5b600082013567ffffffffffffffff8111156120a257600080fd5b6120ae84828501611d4e565b91505092915050565b6000602082840312156120c957600080fd5b60006120d784828501611d78565b91505092915050565b60006120ec83836123ad565b60208301905092915050565b612101816128c8565b82525050565b600061211282612811565b61211c818561283f565b935061212783612801565b8060005b8381101561215857815161213f88826120e0565b975061214a83612832565b92505060018101905061212b565b5085935050505092915050565b61216e816128da565b82525050565b600061217f8261281c565b6121898185612850565b935061219981856020860161294b565b6121a281612ad9565b840191505092915050565b60006121b882612827565b6121c28185612861565b93506121d281856020860161294b565b6121db81612ad9565b840191505092915050565b60006121f3603483612861565b91506121fe82612af7565b604082019050919050565b6000612216602883612861565b915061222182612b46565b604082019050919050565b6000612239602b83612861565b915061224482612b95565b604082019050919050565b600061225c602683612861565b915061226782612be4565b604082019050919050565b600061227f602983612861565b915061228a82612c33565b604082019050919050565b60006122a2602583612861565b91506122ad82612c82565b604082019050919050565b60006122c5603283612861565b91506122d082612cd1565b604082019050919050565b60006122e8602a83612861565b91506122f382612d20565b604082019050919050565b600061230b602083612861565b915061231682612d6f565b602082019050919050565b600061232e602983612861565b915061233982612d98565b604082019050919050565b6000612351602983612861565b915061235c82612de7565b604082019050919050565b6000612374602883612861565b915061237f82612e36565b604082019050919050565b6000612397602183612861565b91506123a282612e85565b604082019050919050565b6123b681612932565b82525050565b6123c581612932565b82525050565b60006020820190506123e060008301846120f8565b92915050565b600060a0820190506123fb60008301886120f8565b61240860208301876120f8565b818103604083015261241a8186612107565b9050818103606083015261242e8185612107565b905081810360808301526124428184612174565b90509695505050505050565b600060a08201905061246360008301886120f8565b61247060208301876120f8565b61247d60408301866123bc565b61248a60608301856123bc565b818103608083015261249c8184612174565b90509695505050505050565b600060208201905081810360008301526124c28184612107565b905092915050565b600060408201905081810360008301526124e48185612107565b905081810360208301526124f88184612107565b90509392505050565b60006020820190506125166000830184612165565b92915050565b6000602082019050818103600083015261253681846121ad565b905092915050565b60006020820190508181036000830152612557816121e6565b9050919050565b6000602082019050818103600083015261257781612209565b9050919050565b600060208201905081810360008301526125978161222c565b9050919050565b600060208201905081810360008301526125b78161224f565b9050919050565b600060208201905081810360008301526125d781612272565b9050919050565b600060208201905081810360008301526125f781612295565b9050919050565b60006020820190508181036000830152612617816122b8565b9050919050565b60006020820190508181036000830152612637816122db565b9050919050565b60006020820190508181036000830152612657816122fe565b9050919050565b6000602082019050818103600083015261267781612321565b9050919050565b6000602082019050818103600083015261269781612344565b9050919050565b600060208201905081810360008301526126b781612367565b9050919050565b600060208201905081810360008301526126d78161238a565b9050919050565b60006020820190506126f360008301846123bc565b92915050565b600060408201905061270e60008301856123bc565b61271b60208301846123bc565b9392505050565b600061272c61273d565b905061273882826129b0565b919050565b6000604051905090565b600067ffffffffffffffff82111561276257612761612a88565b5b602082029050602081019050919050565b600067ffffffffffffffff82111561278e5761278d612a88565b5b602082029050602081019050919050565b600067ffffffffffffffff8211156127ba576127b9612a88565b5b6127c382612ad9565b9050602081019050919050565b600067ffffffffffffffff8211156127eb576127ea612a88565b5b6127f482612ad9565b9050602081019050919050565b6000819050602082019050919050565b600081519050919050565b600081519050919050565b600081519050919050565b6000602082019050919050565b600082825260208201905092915050565b600082825260208201905092915050565b600082825260208201905092915050565b600061287d82612932565b915061288883612932565b9250827fffffffffffffffffffffffffffffffffffffffffffffffffffffffffffffffff038211156128bd576128bc612a2a565b5b828201905092915050565b60006128d382612912565b9050919050565b60008115159050919050565b60007fffffffff0000000000000000000000000000000000000000000000000000000082169050919050565b600073ffffffffffffffffffffffffffffffffffffffff82169050919050565b6000819050919050565b82818337600083830152505050565b60005b8381101561296957808201518184015260208101905061294e565b83811115612978576000848401525b50505050565b6000600282049050600182168061299657607f821691505b602082108114156129aa576129a9612a59565b5b50919050565b6129b982612ad9565b810181811067ffffffffffffffff821117156129d8576129d7612a88565b5b80604052505050565b60006129ec82612932565b91507fffffffffffffffffffffffffffffffffffffffffffffffffffffffffffffffff821415612a1f57612a1e612a2a565b5b600182019050919050565b7f4e487b7100000000000000000000000000000000000000000000000000000000600052601160045260246000fd5b7f4e487b7100000000000000000000000000000000000000000000000000000000600052602260045260246000fd5b7f4e487b7100000000000000000000000000000000000000000000000000000000600052604160045260246000fd5b600060033d1115612ad65760046000803e612ad3600051612aea565b90505b90565b6000601f19601f8301169050919050565b60008160e01c9050919050565b7f455243313135353a207472616e7366657220746f206e6f6e204552433131353560008201527f526563656976657220696d706c656d656e746572000000000000000000000000602082015250565b7f455243313135353a204552433131353552656365697665722072656a6563746560008201527f6420746f6b656e73000000000000000000000000000000000000000000000000602082015250565b7f455243313135353a2062616c616e636520717565727920666f7220746865207a60008201527f65726f2061646472657373000000000000000000000000000000000000000000602082015250565b7f4f776e61626c653a206e6577206f776e657220697320746865207a65726f206160008201527f6464726573730000000000000000000000000000000000000000000000000000602082015250565b7f455243313135353a2063616c6c6572206973206e6f74206f776e6572206e6f7260008201527f20617070726f7665640000000000000000000000000000000000000000000000602082015250565b7f455243313135353a207472616e7366657220746f20746865207a65726f20616460008201527f6472657373000000000000000000000000000000000000000000000000000000602082015250565b7f455243313135353a207472616e736665722063616c6c6572206973206e6f742060008201527f6f776e6572206e6f7220617070726f7665640000000000000000000000000000602082015250565b7f455243313135353a20696e73756666696369656e742062616c616e636520666f60008201527f72207472616e7366657200000000000000000000000000000000000000000000602082015250565b7f4f776e61626c653a2063616c6c6572206973206e6f7420746865206f776e6572600082015250565b7f455243313135353a2073657474696e6720617070726f76616c2073746174757360008201527f20666f722073656c660000000000000000000000000000000000000000000000602082015250565b7f455243313135353a206163636f756e747320616e6420696473206c656e67746860008201527f206d69736d617463680000000000000000000000000000000000000000000000602082015250565b7f455243313135353a2069647320616e6420616d6f756e7473206c656e6774682060008201527f6d69736d61746368000000000000000000000000000000000000000000000000602082015250565b7f455243313135353a206d696e7420746f20746865207a65726f2061646472657360008201527f7300000000000000000000000000000000000000000000000000000000000000602082015250565b600060443d1015612ee457612f67565b612eec61273d565b60043d036004823e80513d602482011167ffffffffffffffff82111715612f14575050612f67565b808201805167ffffffffffffffff811115612f325750505050612f67565b80602083010160043d038501811115612f4f575050505050612f67565b612f5e826020018501866129b0565b82955050505050505b90565b612f73816128c8565b8114612f7e57600080fd5b50565b612f8a816128da565b8114612f9557600080fd5b50565b612fa1816128e6565b8114612fac57600080fd5b50565b612fb881612932565b8114612fc357600080fd5b5056fea2646970667358221220d00767631fc39747bf7fe42dcfad220825185314593834e0d061e5d4da15b0c164736f6c63430008020033",
  "linkReferences": {},
  "deployedLinkReferences": {}
}